{
  "contractName": "Charity",
  "abi": [
    {
      "inputs": [
        {
          "internalType": "address",
          "name": "_admin",
          "type": "address"
        },
        {
          "internalType": "uint256",
          "name": "_id",
          "type": "uint256"
        },
        {
          "internalType": "address",
          "name": "_sponsor",
          "type": "address"
        },
        {
          "internalType": "string",
          "name": "_sponsorName",
          "type": "string"
        },
        {
          "internalType": "string",
          "name": "_demands",
          "type": "string"
        },
        {
          "internalType": "string",
          "name": "_contact",
          "type": "string"
        },
        {
          "internalType": "string",
          "name": "_location0",
          "type": "string"
        },
        {
          "internalType": "string",
          "name": "_img0",
          "type": "string"
        }
      ],
      "stateMutability": "nonpayable",
      "type": "constructor"
    },
    {
      "anonymous": false,
      "inputs": [
        {
          "indexed": false,
          "internalType": "uint256",
          "name": "id",
          "type": "uint256"
        },
        {
          "indexed": false,
          "internalType": "uint256",
          "name": "status",
          "type": "uint256"
        }
      ],
      "name": "Update",
      "type": "event"
    },
    {
      "inputs": [],
      "name": "admin",
      "outputs": [
        {
          "internalType": "address",
          "name": "",
          "type": "address"
        }
      ],
      "stateMutability": "view",
      "type": "function"
    },
    {
      "inputs": [],
      "name": "id",
      "outputs": [
        {
          "internalType": "uint256",
          "name": "",
          "type": "uint256"
        }
      ],
      "stateMutability": "view",
      "type": "function"
    },
    {
      "inputs": [],
      "name": "sponsorInfo",
      "outputs": [
        {
          "internalType": "address",
          "name": "",
          "type": "address"
        },
        {
          "internalType": "string",
          "name": "",
          "type": "string"
        },
        {
          "internalType": "string",
          "name": "",
          "type": "string"
        },
        {
          "internalType": "string",
          "name": "",
          "type": "string"
        },
        {
          "internalType": "string",
          "name": "",
          "type": "string"
        },
        {
          "internalType": "string",
          "name": "",
          "type": "string"
        }
      ],
      "stateMutability": "view",
      "type": "function"
    },
    {
      "inputs": [],
      "name": "helperInfo",
      "outputs": [
        {
          "internalType": "address",
          "name": "",
          "type": "address"
        },
        {
          "internalType": "string",
          "name": "",
          "type": "string"
        },
        {
          "internalType": "string",
          "name": "",
          "type": "string"
        },
        {
          "internalType": "string",
          "name": "",
          "type": "string"
        }
      ],
      "stateMutability": "view",
      "type": "function"
    },
    {
      "inputs": [],
      "name": "Info",
      "outputs": [
        {
          "components": [
            {
              "internalType": "uint256",
              "name": "id",
              "type": "uint256"
            },
            {
              "internalType": "address",
              "name": "sponsor",
              "type": "address"
            },
            {
              "internalType": "address",
              "name": "helper",
              "type": "address"
            },
            {
              "internalType": "string",
              "name": "sponsorName",
              "type": "string"
            },
            {
              "internalType": "string",
              "name": "helperName",
              "type": "string"
            },
            {
              "internalType": "string",
              "name": "demands",
              "type": "string"
            },
            {
              "internalType": "string",
              "name": "contact",
              "type": "string"
            },
            {
              "internalType": "string",
              "name": "img0",
              "type": "string"
            },
            {
              "internalType": "string",
              "name": "img1",
              "type": "string"
            },
            {
              "internalType": "string",
              "name": "location0",
              "type": "string"
            },
            {
              "internalType": "string",
              "name": "location1",
              "type": "string"
            },
            {
              "internalType": "string",
              "name": "express",
              "type": "string"
            },
            {
              "internalType": "uint256",
              "name": "status",
              "type": "uint256"
            }
          ],
          "internalType": "struct CharityLib.info",
          "name": "",
          "type": "tuple"
        }
      ],
      "stateMutability": "view",
      "type": "function"
    },
    {
      "inputs": [
        {
          "internalType": "string",
          "name": "_helperName",
          "type": "string"
        },
        {
          "internalType": "string",
          "name": "_img1",
          "type": "string"
        },
        {
          "internalType": "string",
          "name": "_location1",
          "type": "string"
        },
        {
          "internalType": "string",
          "name": "_express",
          "type": "string"
        }
      ],
      "name": "Donate",
      "outputs": [],
      "stateMutability": "nonpayable",
      "type": "function"
    },
    {
      "inputs": [],
      "name": "getStatus",
      "outputs": [
        {
          "internalType": "uint256",
          "name": "",
          "type": "uint256"
        }
      ],
      "stateMutability": "view",
      "type": "function"
    },
    {
      "inputs": [],
      "name": "update",
      "outputs": [],
      "stateMutability": "nonpayable",
      "type": "function"
    },
    {
      "inputs": [],
      "name": "rollback",
      "outputs": [],
      "stateMutability": "nonpayable",
      "type": "function"
    },
    {
      "inputs": [],
      "name": "complete",
      "outputs": [],
      "stateMutability": "nonpayable",
      "type": "function"
    },
    {
      "inputs": [],
      "name": "failed",
      "outputs": [],
      "stateMutability": "nonpayable",
      "type": "function"
    },
    {
      "inputs": [],
      "name": "destroy",
      "outputs": [],
      "stateMutability": "nonpayable",
      "type": "function"
    }
  ],
  "bytecode": "0x60806040523480156200001157600080fd5b5060405162001ce538038062001ce583398181016040528101906200003791906200027a565b876000806101000a81548173ffffffffffffffffffffffffffffffffffffffff021916908373ffffffffffffffffffffffffffffffffffffffff1602179055508660018190555085600260006101000a81548173ffffffffffffffffffffffffffffffffffffffff021916908373ffffffffffffffffffffffffffffffffffffffff1602179055508460049080519060200190620000d79291906200014a565b508360069080519060200190620000f09291906200014a565b508260079080519060200190620001099291906200014a565b5081600a9080519060200190620001229291906200014a565b5080600890805190602001906200013b9291906200014a565b505050505050505050620004bd565b828054600181600116156101000203166002900490600052602060002090601f016020900481019282601f106200018d57805160ff1916838001178555620001be565b82800160010185558215620001be579182015b82811115620001bd578251825591602001919060010190620001a0565b5b509050620001cd9190620001d1565b5090565b5b80821115620001ec576000816000905550600101620001d2565b5090565b600081519050620002018162000489565b92915050565b600082601f8301126200021957600080fd5b8151620002306200022a82620003e8565b620003ba565b915080825260208301602083018583830111156200024d57600080fd5b6200025a83828462000453565b50505092915050565b6000815190506200027481620004a3565b92915050565b600080600080600080600080610100898b0312156200029857600080fd5b6000620002a88b828c01620001f0565b9850506020620002bb8b828c0162000263565b9750506040620002ce8b828c01620001f0565b965050606089015167ffffffffffffffff811115620002ec57600080fd5b620002fa8b828c0162000207565b955050608089015167ffffffffffffffff8111156200031857600080fd5b620003268b828c0162000207565b94505060a089015167ffffffffffffffff8111156200034457600080fd5b620003528b828c0162000207565b93505060c089015167ffffffffffffffff8111156200037057600080fd5b6200037e8b828c0162000207565b92505060e089015167ffffffffffffffff8111156200039c57600080fd5b620003aa8b828c0162000207565b9150509295985092959890939650565b6000604051905081810181811067ffffffffffffffff82111715620003de57600080fd5b8060405250919050565b600067ffffffffffffffff8211156200040057600080fd5b601f19601f8301169050602081019050919050565b6000620004228262000429565b9050919050565b600073ffffffffffffffffffffffffffffffffffffffff82169050919050565b6000819050919050565b60005b838110156200047357808201518184015260208101905062000456565b8381111562000483576000848401525b50505050565b620004948162000415565b8114620004a057600080fd5b50565b620004ae8162000449565b8114620004ba57600080fd5b50565b61181880620004cd6000396000f3fe608060405234801561001057600080fd5b50600436106100b45760003560e01c8063a2e6204511610071578063a2e6204514610134578063af640d0f1461013e578063ba414fa61461015c578063ba74d1c414610166578063cfa2082314610189578063f851a440146101a5576100b4565b8063287e89dd146100b95780634012e02e146100da5780634e69d560146100f8578063522e11771461011657806383197ef0146101205780639afd9d781461012a575b600080fd5b6100c16101c3565b6040516100d19493929190611549565b60405180910390f35b6100e26103d5565b6040516100ef9190611667565b60405180910390f35b610100610a18565b60405161010d9190611689565b60405180910390f35b61011e610a22565b005b610128610aae565b005b610132610b55565b005b61013c610ba7565b005b610146610bf8565b6040516101539190611689565b60405180910390f35b610164610bfe565b005b61016e610c45565b604051610180969594939291906115a3565b60405180910390f35b6101a3600480360381019061019e91906111ec565b610f9c565b005b6101ad611043565b6040516101ba919061152e565b60405180910390f35b60006060806060600360009054906101000a900473ffffffffffffffffffffffffffffffffffffffff1660056009600b828054600181600116156101000203166002900480601f0160208091040260200160405190810160405280929190818152602001828054600181600116156101000203166002900480156102885780601f1061025d57610100808354040283529160200191610288565b820191906000526020600020905b81548152906001019060200180831161026b57829003601f168201915b50505050509250818054600181600116156101000203166002900480601f0160208091040260200160405190810160405280929190818152602001828054600181600116156101000203166002900480156103245780601f106102f957610100808354040283529160200191610324565b820191906000526020600020905b81548152906001019060200180831161030757829003601f168201915b50505050509150808054600181600116156101000203166002900480601f0160208091040260200160405190810160405280929190818152602001828054600181600116156101000203166002900480156103c05780601f10610395576101008083540402835291602001916103c0565b820191906000526020600020905b8154815290600101906020018083116103a357829003601f168201915b50505050509050935093509350935090919293565b6103dd611067565b604051806101a001604052806001548152602001600260009054906101000a900473ffffffffffffffffffffffffffffffffffffffff1673ffffffffffffffffffffffffffffffffffffffff168152602001600360009054906101000a900473ffffffffffffffffffffffffffffffffffffffff1673ffffffffffffffffffffffffffffffffffffffff16815260200160048054600181600116156101000203166002900480601f0160208091040260200160405190810160405280929190818152602001828054600181600116156101000203166002900480156105035780601f106104d857610100808354040283529160200191610503565b820191906000526020600020905b8154815290600101906020018083116104e657829003601f168201915b5050505050815260200160058054600181600116156101000203166002900480601f0160208091040260200160405190810160405280929190818152602001828054600181600116156101000203166002900480156105a35780601f10610578576101008083540402835291602001916105a3565b820191906000526020600020905b81548152906001019060200180831161058657829003601f168201915b5050505050815260200160068054600181600116156101000203166002900480601f0160208091040260200160405190810160405280929190818152602001828054600181600116156101000203166002900480156106435780601f1061061857610100808354040283529160200191610643565b820191906000526020600020905b81548152906001019060200180831161062657829003601f168201915b5050505050815260200160078054600181600116156101000203166002900480601f0160208091040260200160405190810160405280929190818152602001828054600181600116156101000203166002900480156106e35780601f106106b8576101008083540402835291602001916106e3565b820191906000526020600020905b8154815290600101906020018083116106c657829003601f168201915b5050505050815260200160088054600181600116156101000203166002900480601f0160208091040260200160405190810160405280929190818152602001828054600181600116156101000203166002900480156107835780601f1061075857610100808354040283529160200191610783565b820191906000526020600020905b81548152906001019060200180831161076657829003601f168201915b5050505050815260200160098054600181600116156101000203166002900480601f0160208091040260200160405190810160405280929190818152602001828054600181600116156101000203166002900480156108235780601f106107f857610100808354040283529160200191610823565b820191906000526020600020905b81548152906001019060200180831161080657829003601f168201915b50505050508152602001600a8054600181600116156101000203166002900480601f0160208091040260200160405190810160405280929190818152602001828054600181600116156101000203166002900480156108c35780601f10610898576101008083540402835291602001916108c3565b820191906000526020600020905b8154815290600101906020018083116108a657829003601f168201915b50505050508152602001600b8054600181600116156101000203166002900480601f0160208091040260200160405190810160405280929190818152602001828054600181600116156101000203166002900480156109635780601f1061093857610100808354040283529160200191610963565b820191906000526020600020905b81548152906001019060200180831161094657829003601f168201915b50505050508152602001600c8054600181600116156101000203166002900480601f016020809104026020016040519081016040528092919081815260200182805460018160011615610100020316600290048015610a035780601f106109d857610100808354040283529160200191610a03565b820191906000526020600020905b8154815290600101906020018083116109e657829003601f168201915b50505050508152602001600d54815250905090565b6000600d54905090565b6002600d5414610a67576040517f08c379a0000000000000000000000000000000000000000000000000000000008152600401610a5e90611627565b60405180910390fd5b610a6f610ba7565b7f8ecf343d22d1934aea3fb34b7332371552b19286c5bc696adae16c7690a90d54600154600d54604051610aa49291906116a4565b60405180910390a1565b3373ffffffffffffffffffffffffffffffffffffffff1660008054906101000a900473ffffffffffffffffffffffffffffffffffffffff1673ffffffffffffffffffffffffffffffffffffffff1614610b3c576040517f08c379a0000000000000000000000000000000000000000000000000000000008152600401610b3390611647565b60405180910390fd5b3373ffffffffffffffffffffffffffffffffffffffff16ff5b600d60008154809291906001900391905055507f8ecf343d22d1934aea3fb34b7332371552b19286c5bc696adae16c7690a90d54600154600d54604051610b9d9291906116a4565b60405180910390a1565b600d600081548092919060010191905055507f8ecf343d22d1934aea3fb34b7332371552b19286c5bc696adae16c7690a90d54600154600d54604051610bee9291906116a4565b60405180910390a1565b60015481565b6009600d819055507f8ecf343d22d1934aea3fb34b7332371552b19286c5bc696adae16c7690a90d54600154600d54604051610c3b9291906116a4565b60405180910390a1565b60006060806060806060600260009054906101000a900473ffffffffffffffffffffffffffffffffffffffff166004600660076008600a848054600181600116156101000203166002900480601f016020809104026020016040519081016040528092919081815260200182805460018160011615610100020316600290048015610d115780601f10610ce657610100808354040283529160200191610d11565b820191906000526020600020905b815481529060010190602001808311610cf457829003601f168201915b50505050509450838054600181600116156101000203166002900480601f016020809104026020016040519081016040528092919081815260200182805460018160011615610100020316600290048015610dad5780601f10610d8257610100808354040283529160200191610dad565b820191906000526020600020905b815481529060010190602001808311610d9057829003601f168201915b50505050509350828054600181600116156101000203166002900480601f016020809104026020016040519081016040528092919081815260200182805460018160011615610100020316600290048015610e495780601f10610e1e57610100808354040283529160200191610e49565b820191906000526020600020905b815481529060010190602001808311610e2c57829003601f168201915b50505050509250818054600181600116156101000203166002900480601f016020809104026020016040519081016040528092919081815260200182805460018160011615610100020316600290048015610ee55780601f10610eba57610100808354040283529160200191610ee5565b820191906000526020600020905b815481529060010190602001808311610ec857829003601f168201915b50505050509150808054600181600116156101000203166002900480601f016020809104026020016040519081016040528092919081815260200182805460018160011615610100020316600290048015610f815780601f10610f5657610100808354040283529160200191610f81565b820191906000526020600020905b815481529060010190602001808311610f6457829003601f168201915b50505050509050955095509550955095509550909192939495565b8360059080519060200190610fb29291906110fb565b508260099080519060200190610fc99291906110fb565b5081600b9080519060200190610fe09291906110fb565b5080600c9080519060200190610ff79291906110fb565b50611000610ba7565b7f8ecf343d22d1934aea3fb34b7332371552b19286c5bc696adae16c7690a90d54600154600d546040516110359291906116a4565b60405180910390a150505050565b60008054906101000a900473ffffffffffffffffffffffffffffffffffffffff1681565b604051806101a0016040528060008152602001600073ffffffffffffffffffffffffffffffffffffffff168152602001600073ffffffffffffffffffffffffffffffffffffffff168152602001606081526020016060815260200160608152602001606081526020016060815260200160608152602001606081526020016060815260200160608152602001600081525090565b828054600181600116156101000203166002900490600052602060002090601f016020900481019282601f1061113c57805160ff191683800117855561116a565b8280016001018555821561116a579182015b8281111561116957825182559160200191906001019061114e565b5b509050611177919061117b565b5090565b5b8082111561119457600081600090555060010161117c565b5090565b600082601f8301126111a957600080fd5b81356111bc6111b7826116fa565b6116cd565b915080825260208301602083018583830111156111d857600080fd5b6111e383828461178f565b50505092915050565b6000806000806080858703121561120257600080fd5b600085013567ffffffffffffffff81111561121c57600080fd5b61122887828801611198565b945050602085013567ffffffffffffffff81111561124557600080fd5b61125187828801611198565b935050604085013567ffffffffffffffff81111561126e57600080fd5b61127a87828801611198565b925050606085013567ffffffffffffffff81111561129757600080fd5b6112a387828801611198565b91505092959194509250565b6112b881611753565b82525050565b6112c781611753565b82525050565b60006112d882611726565b6112e28185611731565b93506112f281856020860161179e565b6112fb816117d1565b840191505092915050565b600061131182611726565b61131b8185611742565b935061132b81856020860161179e565b611334816117d1565b840191505092915050565b600061134c601183611742565b91507f696c6c6567616c206f7065726174696f6e0000000000000000000000000000006000830152602082019050919050565b600061138c600a83611742565b91507f6e6f74207065726d6974000000000000000000000000000000000000000000006000830152602082019050919050565b60006101a0830160008301516113d86000860182611510565b5060208301516113eb60208601826112af565b5060408301516113fe60408601826112af565b506060830151848203606086015261141682826112cd565b9150506080830151848203608086015261143082826112cd565b91505060a083015184820360a086015261144a82826112cd565b91505060c083015184820360c086015261146482826112cd565b91505060e083015184820360e086015261147e82826112cd565b91505061010083015184820361010086015261149a82826112cd565b9150506101208301518482036101208601526114b682826112cd565b9150506101408301518482036101408601526114d282826112cd565b9150506101608301518482036101608601526114ee82826112cd565b915050610180830151611505610180860182611510565b508091505092915050565b61151981611785565b82525050565b61152881611785565b82525050565b600060208201905061154360008301846112be565b92915050565b600060808201905061155e60008301876112be565b81810360208301526115708186611306565b905081810360408301526115848185611306565b905081810360608301526115988184611306565b905095945050505050565b600060c0820190506115b860008301896112be565b81810360208301526115ca8188611306565b905081810360408301526115de8187611306565b905081810360608301526115f28186611306565b905081810360808301526116068185611306565b905081810360a083015261161a8184611306565b9050979650505050505050565b600060208201905081810360008301526116408161133f565b9050919050565b600060208201905081810360008301526116608161137f565b9050919050565b6000602082019050818103600083015261168181846113bf565b905092915050565b600060208201905061169e600083018461151f565b92915050565b60006040820190506116b9600083018561151f565b6116c6602083018461151f565b9392505050565b6000604051905081810181811067ffffffffffffffff821117156116f057600080fd5b8060405250919050565b600067ffffffffffffffff82111561171157600080fd5b601f19601f8301169050602081019050919050565b600081519050919050565b600082825260208201905092915050565b600082825260208201905092915050565b600061175e82611765565b9050919050565b600073ffffffffffffffffffffffffffffffffffffffff82169050919050565b6000819050919050565b82818337600083830152505050565b60005b838110156117bc5780820151818401526020810190506117a1565b838111156117cb576000848401525b50505050565b6000601f19601f830116905091905056fea2646970667358221220ca98b81256463c17c65f7bdfa775cf6f53245288a42a4f88bfb2afe2c17d3f3264736f6c634300060c0033",
  "immutableReferences": {},
  "source": "pragma solidity >=0.5.0 <0.7.0;\r\npragma experimental ABIEncoderV2;\r\n\r\nimport \"../library/CharityLib.sol\";\r\n\r\ncontract Charity {\r\n    address public admin;\r\n\r\n    uint public id;  //\r\n\r\n    address sponsor;  //address\r\n    address helper;    //address\r\n\r\n    string sponsorName;  // or  \r\n    string helperName;\r\n\r\n    string demands;   //\r\n    string contact;   //\r\n\r\n    string img0;     // \r\n    string img1;\r\n    string location0;  // \r\n    string location1;  // \r\n    string express;    //\r\n\r\n    uint status;      // 0: 1 2 3 -1\r\n\r\n    event Update(uint id, uint status);\r\n\r\n    constructor(\r\n        address _admin,\r\n        uint _id, \r\n        address _sponsor,\r\n        string memory _sponsorName, \r\n        string memory _demands, \r\n        string memory _contact, \r\n        string memory _location0, \r\n        string memory _img0\r\n    ) public { \r\n        admin = _admin;\r\n        id = _id;\r\n        sponsor = _sponsor;\r\n        sponsorName = _sponsorName;\r\n        demands = _demands;\r\n        contact = _contact;\r\n        location0 = _location0;\r\n        img0 = _img0;\r\n    }\r\n\r\n    function sponsorInfo() public view returns(\r\n        address, string memory, string memory, string memory, string memory, string memory\r\n    ) {\r\n        return (sponsor, sponsorName, demands, contact, img0, location0);\r\n    }\r\n\r\n    function helperInfo() public view returns(\r\n        address, string memory, string memory, string memory\r\n    ) {\r\n        return (helper, helperName, img1, location1);\r\n    }\r\n\r\n    function Info() public view returns (\r\n        CharityLib.info memory\r\n    ) {\r\n        return CharityLib.info(id, sponsor, helper, sponsorName, helperName, demands, contact, img0, img1, location0, location1, express, status);\r\n    } \r\n\r\n    function Donate(\r\n        string memory _helperName, \r\n        string memory _img1, \r\n        string memory _location1, \r\n        string memory _express\r\n    ) public {\r\n        helperName = _helperName;\r\n        img1 = _img1;\r\n        location1 = _location1;\r\n        express = _express;\r\n        update();\r\n        emit Update(id, status);\r\n    }\r\n\r\n    function getStatus() public view returns(uint) {\r\n        return status;\r\n    }\r\n\r\n    function update() public { // 0: 1 2 3 -1\r\n        status ++;\r\n        emit Update(id, status);\r\n    }\r\n\r\n    function rollback() public {  // \r\n        status --;\r\n        emit Update(id, status);\r\n    }\r\n\r\n    function complete() public {\r\n        require(status == 2,\"illegal operation\");\r\n        update();\r\n        Update(id, status);\r\n    }\r\n\r\n    function failed() public {    //\r\n        status = 9;\r\n        emit Update(id, status);\r\n    } \r\n\r\n    function destroy() public{      //\r\n        require(admin == msg.sender,\"not permit\");\r\n        selfdestruct(msg.sender);\r\n    }\r\n\r\n}\r\n\r\ncontract CharityFactory {\r\n    bytes contractBytecode = type(Charity).creationCode;\r\n    address[] public charities;\r\n    uint index = 0;\r\n    address admin;\r\n\r\n    constructor() public {\r\n        admin = msg.sender;\r\n    }\r\n\r\n    function deployer(        \r\n        string memory _sponsorName, \r\n        string memory _demands, \r\n        string memory _contact, \r\n        string memory _location0, \r\n        string memory _img0\r\n    ) public {\r\n        address addr;\r\n        bytes memory bytecode = abi.encodePacked(\r\n            contractBytecode, \r\n            abi.encode(\r\n                admin,\r\n                index, \r\n                msg.sender,\r\n                _sponsorName, \r\n                _demands, \r\n                _contact, \r\n                _location0, \r\n                _img0\r\n            )\r\n        );\r\n        assembly {\r\n          addr := create2(0, add(bytecode, 0x20), mload(bytecode), 0)\r\n          if iszero(extcodesize(addr)) {\r\n              revert(0, 0)\r\n          }\r\n        }\r\n\r\n        charities.push(addr);\r\n        index ++;\r\n    }\r\n   \r\n}",
  "sourcePath": "/d/Code/Conflux/JustDonate/CharityFactory/contracts/CharityFactory.sol",
  "compiler": {
    "name": "solc",
    "version": "0.6.12+commit.27d51765.Linux.g++"
  },
  "schemaVersion": "3.2.0",
  "updatedAt": "2021-04-15T14:58:05.333Z",
  "devdoc": {
    "kind": "dev",
    "methods": {},
    "version": 1
  },
  "userdoc": {
    "kind": "user",
    "methods": {},
    "version": 1
  }
}