{
  "contractName": "CharityFactory",
  "abi": [
    {
      "inputs": [
        {
          "internalType": "uint256",
          "name": "",
          "type": "uint256"
        }
      ],
      "name": "charities",
      "outputs": [
        {
          "internalType": "address",
          "name": "",
          "type": "address"
        }
      ],
      "stateMutability": "view",
      "type": "function"
    },
    {
      "inputs": [
        {
          "internalType": "string",
          "name": "_sponsorName",
          "type": "string"
        },
        {
          "internalType": "string",
          "name": "_demands",
          "type": "string"
        },
        {
          "internalType": "string",
          "name": "_contact",
          "type": "string"
        },
        {
          "internalType": "string",
          "name": "_location0",
          "type": "string"
        },
        {
          "internalType": "string",
          "name": "_img0",
          "type": "string"
        }
      ],
      "name": "deployer",
      "outputs": [],
      "stateMutability": "nonpayable",
      "type": "function"
    }
  ],
  "bytecode": "0x60806040526040518060200161001490610055565b6020820181038252601f19601f820116604052506000908051906020019061003d929190610062565b50600060025534801561004f57600080fd5b506100ff565b6117e0806107c283390190565b828054600181600116156101000203166002900490600052602060002090601f016020900481019282601f106100a357805160ff19168380011785556100d1565b828001600101855582156100d1579182015b828111156100d05782518255916020019190600101906100b5565b5b5090506100de91906100e2565b5090565b5b808211156100fb5760008160009055506001016100e3565b5090565b6106b48061010e6000396000f3fe608060405234801561001057600080fd5b50600436106100365760003560e01c806363885a211461003b578063fb709d2e14610057575b600080fd5b61005560048036038101906100509190610218565b610087565b005b610071600480360381019061006c9190610307565b610173565b60405161007e9190610479565b60405180910390f35b6000606060006002543389898989896040516020016100ac9796959493929190610494565b6040516020818303038152906040526040516020016100cc929190610455565b604051602081830303815290604052905060008151602083016000f59150813b6100f557600080fd5b6001829080600181540180825580915050600190039060005260206000200160009091909190916101000a81548173ffffffffffffffffffffffffffffffffffffffff021916908373ffffffffffffffffffffffffffffffffffffffff16021790555060026000815480929190600101919050555050505050505050565b6001818154811061018057fe5b906000526020600020016000915054906101000a900473ffffffffffffffffffffffffffffffffffffffff1681565b600082601f8301126101c057600080fd5b81356101d36101ce82610553565b610526565b915080825260208301602083018583830111156101ef57600080fd5b6101fa838284610614565b50505092915050565b60008135905061021281610667565b92915050565b600080600080600060a0868803121561023057600080fd5b600086013567ffffffffffffffff81111561024a57600080fd5b610256888289016101af565b955050602086013567ffffffffffffffff81111561027357600080fd5b61027f888289016101af565b945050604086013567ffffffffffffffff81111561029c57600080fd5b6102a8888289016101af565b935050606086013567ffffffffffffffff8111156102c557600080fd5b6102d1888289016101af565b925050608086013567ffffffffffffffff8111156102ee57600080fd5b6102fa888289016101af565b9150509295509295909350565b60006020828403121561031957600080fd5b600061032784828501610203565b91505092915050565b610339816105d8565b82525050565b610348816105c6565b82525050565b600061035982610594565b61036381856105aa565b9350610373818560208601610623565b80840191505092915050565b60008154600181166000811461039c57600181146103c157610405565b607f60028304166103ad81876105aa565b955060ff1983168652808601935050610405565b600282046103cf81876105aa565b95506103da8561057f565b60005b828110156103fc578154818901526001820191506020810190506103dd565b82880195505050505b505092915050565b60006104188261059f565b61042281856105b5565b9350610432818560208601610623565b61043b81610656565b840191505092915050565b61044f8161060a565b82525050565b6000610461828561037f565b915061046d828461034e565b91508190509392505050565b600060208201905061048e600083018461033f565b92915050565b600060e0820190506104a9600083018a610446565b6104b66020830189610330565b81810360408301526104c8818861040d565b905081810360608301526104dc818761040d565b905081810360808301526104f0818661040d565b905081810360a0830152610504818561040d565b905081810360c0830152610518818461040d565b905098975050505050505050565b6000604051905081810181811067ffffffffffffffff8211171561054957600080fd5b8060405250919050565b600067ffffffffffffffff82111561056a57600080fd5b601f19601f8301169050602081019050919050565b60008190508160005260206000209050919050565b600081519050919050565b600081519050919050565b600081905092915050565b600082825260208201905092915050565b60006105d1826105ea565b9050919050565b60006105e3826105ea565b9050919050565b600073ffffffffffffffffffffffffffffffffffffffff82169050919050565b6000819050919050565b82818337600083830152505050565b60005b83811015610641578082015181840152602081019050610626565b83811115610650576000848401525b50505050565b6000601f19601f8301169050919050565b6106708161060a565b811461067b57600080fd5b5056fea26469706673582212204c656f887ee8b17bb7af4acec31ca41ed708e51a61872ac5e6c7b6e197240a9f64736f6c634300060c003360806040523480156200001157600080fd5b50604051620017e0380380620017e0833981810160405281019062000037919062000239565b8660018190555085600260006101000a81548173ffffffffffffffffffffffffffffffffffffffff021916908373ffffffffffffffffffffffffffffffffffffffff16021790555084600490805190602001906200009792919062000109565b508360069080519060200190620000b092919062000109565b508260079080519060200190620000c992919062000109565b5081600a9080519060200190620000e292919062000109565b508060089080519060200190620000fb92919062000109565b505050505050505062000466565b828054600181600116156101000203166002900490600052602060002090601f016020900481019282601f106200014c57805160ff19168380011785556200017d565b828001600101855582156200017d579182015b828111156200017c5782518255916020019190600101906200015f565b5b5090506200018c919062000190565b5090565b5b80821115620001ab57600081600090555060010162000191565b5090565b600081519050620001c08162000432565b92915050565b600082601f830112620001d857600080fd5b8151620001ef620001e98262000391565b62000363565b915080825260208301602083018583830111156200020c57600080fd5b62000219838284620003fc565b50505092915050565b60008151905062000233816200044c565b92915050565b600080600080600080600060e0888a0312156200025557600080fd5b6000620002658a828b0162000222565b9750506020620002788a828b01620001af565b965050604088015167ffffffffffffffff8111156200029657600080fd5b620002a48a828b01620001c6565b955050606088015167ffffffffffffffff811115620002c257600080fd5b620002d08a828b01620001c6565b945050608088015167ffffffffffffffff811115620002ee57600080fd5b620002fc8a828b01620001c6565b93505060a088015167ffffffffffffffff8111156200031a57600080fd5b620003288a828b01620001c6565b92505060c088015167ffffffffffffffff8111156200034657600080fd5b620003548a828b01620001c6565b91505092959891949750929550565b6000604051905081810181811067ffffffffffffffff821117156200038757600080fd5b8060405250919050565b600067ffffffffffffffff821115620003a957600080fd5b601f19601f8301169050602081019050919050565b6000620003cb82620003d2565b9050919050565b600073ffffffffffffffffffffffffffffffffffffffff82169050919050565b6000819050919050565b60005b838110156200041c578082015181840152602081019050620003ff565b838111156200042c576000848401525b50505050565b6200043d81620003be565b81146200044957600080fd5b50565b6200045781620003f2565b81146200046357600080fd5b50565b61136a80620004766000396000f3fe608060405234801561001057600080fd5b506004361061009e5760003560e01c8063a2e6204511610066578063a2e6204514610114578063af640d0f1461011e578063ba414fa61461013c578063ba74d1c414610146578063f851a440146101695761009e565b8063287e89dd146100a35780634012e02e146100c45780634e69d560146100e257806383197ef0146101005780639afd9d781461010a575b600080fd5b6100ab610187565b6040516100bb9493929190611123565b60405180910390f35b6100cc610399565b6040516100d99190611221565b60405180910390f35b6100ea61093c565b6040516100f79190611243565b60405180910390f35b610108610946565b005b6101126109ed565b005b61011c610a3f565b005b610126610a90565b6040516101339190611243565b60405180910390f35b610144610a96565b005b61014e610add565b6040516101609695949392919061117d565b60405180910390f35b610171610e34565b60405161017e9190611108565b60405180910390f35b60006060806060600360009054906101000a900473ffffffffffffffffffffffffffffffffffffffff1660056009600b828054600181600116156101000203166002900480601f01602080910402602001604051908101604052809291908181526020018280546001816001161561010002031660029004801561024c5780601f106102215761010080835404028352916020019161024c565b820191906000526020600020905b81548152906001019060200180831161022f57829003601f168201915b50505050509250818054600181600116156101000203166002900480601f0160208091040260200160405190810160405280929190818152602001828054600181600116156101000203166002900480156102e85780601f106102bd576101008083540402835291602001916102e8565b820191906000526020600020905b8154815290600101906020018083116102cb57829003601f168201915b50505050509150808054600181600116156101000203166002900480601f0160208091040260200160405190810160405280929190818152602001828054600181600116156101000203166002900480156103845780601f1061035957610100808354040283529160200191610384565b820191906000526020600020905b81548152906001019060200180831161036757829003601f168201915b50505050509050935093509350935090919293565b6103a1610e58565b6040518061018001604052806001548152602001600260009054906101000a900473ffffffffffffffffffffffffffffffffffffffff1673ffffffffffffffffffffffffffffffffffffffff168152602001600360009054906101000a900473ffffffffffffffffffffffffffffffffffffffff1673ffffffffffffffffffffffffffffffffffffffff16815260200160048054600181600116156101000203166002900480601f0160208091040260200160405190810160405280929190818152602001828054600181600116156101000203166002900480156104c75780601f1061049c576101008083540402835291602001916104c7565b820191906000526020600020905b8154815290600101906020018083116104aa57829003601f168201915b5050505050815260200160058054600181600116156101000203166002900480601f0160208091040260200160405190810160405280929190818152602001828054600181600116156101000203166002900480156105675780601f1061053c57610100808354040283529160200191610567565b820191906000526020600020905b81548152906001019060200180831161054a57829003601f168201915b5050505050815260200160068054600181600116156101000203166002900480601f0160208091040260200160405190810160405280929190818152602001828054600181600116156101000203166002900480156106075780601f106105dc57610100808354040283529160200191610607565b820191906000526020600020905b8154815290600101906020018083116105ea57829003601f168201915b5050505050815260200160078054600181600116156101000203166002900480601f0160208091040260200160405190810160405280929190818152602001828054600181600116156101000203166002900480156106a75780601f1061067c576101008083540402835291602001916106a7565b820191906000526020600020905b81548152906001019060200180831161068a57829003601f168201915b5050505050815260200160088054600181600116156101000203166002900480601f0160208091040260200160405190810160405280929190818152602001828054600181600116156101000203166002900480156107475780601f1061071c57610100808354040283529160200191610747565b820191906000526020600020905b81548152906001019060200180831161072a57829003601f168201915b5050505050815260200160098054600181600116156101000203166002900480601f0160208091040260200160405190810160405280929190818152602001828054600181600116156101000203166002900480156107e75780601f106107bc576101008083540402835291602001916107e7565b820191906000526020600020905b8154815290600101906020018083116107ca57829003601f168201915b50505050508152602001600a8054600181600116156101000203166002900480601f0160208091040260200160405190810160405280929190818152602001828054600181600116156101000203166002900480156108875780601f1061085c57610100808354040283529160200191610887565b820191906000526020600020905b81548152906001019060200180831161086a57829003601f168201915b50505050508152602001600b8054600181600116156101000203166002900480601f0160208091040260200160405190810160405280929190818152602001828054600181600116156101000203166002900480156109275780601f106108fc57610100808354040283529160200191610927565b820191906000526020600020905b81548152906001019060200180831161090a57829003601f168201915b50505050508152602001600c54815250905090565b6000600c54905090565b3373ffffffffffffffffffffffffffffffffffffffff1660008054906101000a900473ffffffffffffffffffffffffffffffffffffffff1673ffffffffffffffffffffffffffffffffffffffff16146109d4576040517f08c379a00000000000000000000000000000000000000000000000000000000081526004016109cb90611201565b60405180910390fd5b3373ffffffffffffffffffffffffffffffffffffffff16ff5b600c60008154809291906001900391905055507f8ecf343d22d1934aea3fb34b7332371552b19286c5bc696adae16c7690a90d54600154600c54604051610a3592919061125e565b60405180910390a1565b600c600081548092919060010191905055507f8ecf343d22d1934aea3fb34b7332371552b19286c5bc696adae16c7690a90d54600154600c54604051610a8692919061125e565b60405180910390a1565b60015481565b6004600c819055507f8ecf343d22d1934aea3fb34b7332371552b19286c5bc696adae16c7690a90d54600154600c54604051610ad392919061125e565b60405180910390a1565b60006060806060806060600260009054906101000a900473ffffffffffffffffffffffffffffffffffffffff166004600660076008600a848054600181600116156101000203166002900480601f016020809104026020016040519081016040528092919081815260200182805460018160011615610100020316600290048015610ba95780601f10610b7e57610100808354040283529160200191610ba9565b820191906000526020600020905b815481529060010190602001808311610b8c57829003601f168201915b50505050509450838054600181600116156101000203166002900480601f016020809104026020016040519081016040528092919081815260200182805460018160011615610100020316600290048015610c455780601f10610c1a57610100808354040283529160200191610c45565b820191906000526020600020905b815481529060010190602001808311610c2857829003601f168201915b50505050509350828054600181600116156101000203166002900480601f016020809104026020016040519081016040528092919081815260200182805460018160011615610100020316600290048015610ce15780601f10610cb657610100808354040283529160200191610ce1565b820191906000526020600020905b815481529060010190602001808311610cc457829003601f168201915b50505050509250818054600181600116156101000203166002900480601f016020809104026020016040519081016040528092919081815260200182805460018160011615610100020316600290048015610d7d5780601f10610d5257610100808354040283529160200191610d7d565b820191906000526020600020905b815481529060010190602001808311610d6057829003601f168201915b50505050509150808054600181600116156101000203166002900480601f016020809104026020016040519081016040528092919081815260200182805460018160011615610100020316600290048015610e195780601f10610dee57610100808354040283529160200191610e19565b820191906000526020600020905b815481529060010190602001808311610dfc57829003601f168201915b50505050509050955095509550955095509550909192939495565b60008054906101000a900473ffffffffffffffffffffffffffffffffffffffff1681565b60405180610180016040528060008152602001600073ffffffffffffffffffffffffffffffffffffffff168152602001600073ffffffffffffffffffffffffffffffffffffffff1681526020016060815260200160608152602001606081526020016060815260200160608152602001606081526020016060815260200160608152602001600081525090565b610eee816112b4565b82525050565b610efd816112b4565b82525050565b6000610f0e82611287565b610f188185611292565b9350610f288185602086016112f0565b610f3181611323565b840191505092915050565b6000610f4782611287565b610f5181856112a3565b9350610f618185602086016112f0565b610f6a81611323565b840191505092915050565b6000610f82600a836112a3565b91507f6e6f74207065726d6974000000000000000000000000000000000000000000006000830152602082019050919050565b600061018083016000830151610fce60008601826110ea565b506020830151610fe16020860182610ee5565b506040830151610ff46040860182610ee5565b506060830151848203606086015261100c8282610f03565b915050608083015184820360808601526110268282610f03565b91505060a083015184820360a08601526110408282610f03565b91505060c083015184820360c086015261105a8282610f03565b91505060e083015184820360e08601526110748282610f03565b9150506101008301518482036101008601526110908282610f03565b9150506101208301518482036101208601526110ac8282610f03565b9150506101408301518482036101408601526110c88282610f03565b9150506101608301516110df6101608601826110ea565b508091505092915050565b6110f3816112e6565b82525050565b611102816112e6565b82525050565b600060208201905061111d6000830184610ef4565b92915050565b60006080820190506111386000830187610ef4565b818103602083015261114a8186610f3c565b9050818103604083015261115e8185610f3c565b905081810360608301526111728184610f3c565b905095945050505050565b600060c0820190506111926000830189610ef4565b81810360208301526111a48188610f3c565b905081810360408301526111b88187610f3c565b905081810360608301526111cc8186610f3c565b905081810360808301526111e08185610f3c565b905081810360a08301526111f48184610f3c565b9050979650505050505050565b6000602082019050818103600083015261121a81610f75565b9050919050565b6000602082019050818103600083015261123b8184610fb5565b905092915050565b600060208201905061125860008301846110f9565b92915050565b600060408201905061127360008301856110f9565b61128060208301846110f9565b9392505050565b600081519050919050565b600082825260208201905092915050565b600082825260208201905092915050565b60006112bf826112c6565b9050919050565b600073ffffffffffffffffffffffffffffffffffffffff82169050919050565b6000819050919050565b60005b8381101561130e5780820151818401526020810190506112f3565b8381111561131d576000848401525b50505050565b6000601f19601f830116905091905056fea26469706673582212207c7f7cc020ac6183646c632ddd963c07fc02ba80e5508e4b45335370120e061f64736f6c634300060c0033",
  "immutableReferences": {},
  "source": "pragma solidity >=0.5.0 <0.7.0;\r\npragma experimental ABIEncoderV2;\r\n\r\ncontract Charity {\r\n    address public admin;\r\n\r\n    uint public id;  //需求编号\r\n\r\n    address sponsor;  //发起人address\r\n    address helper;    //捐助者address\r\n\r\n    string sponsorName;  //发起人 or 机构 名称\r\n    string helperName;\r\n\r\n    string demands;   //需求内容\r\n    string contact;   //联系方式\r\n\r\n    string img0;     //佐证材料 \r\n    string img1;\r\n    string location0;  //发起者 位置地区\r\n    string location1;  //捐助者 位置地区\r\n\r\n    uint status;      //互助状态 0:初始 1：通过 2：捐赠中 3：捐赠完成 4：失败\r\n\r\n    event Update(uint id, uint status);\r\n\r\n    constructor(\r\n        uint _id, \r\n        address _sponsor,\r\n        string memory _sponsorName, \r\n        string memory _demands, \r\n        string memory _contact, \r\n        string memory _location0, \r\n        string memory _img0\r\n    ) public { \r\n        id = _id;\r\n        sponsor = _sponsor;\r\n        sponsorName = _sponsorName;\r\n        demands = _demands;\r\n        contact = _contact;\r\n        location0 = _location0;\r\n        img0 = _img0;\r\n    }\r\n\r\n    function sponsorInfo() public view returns(\r\n        address, string memory, string memory, string memory, string memory, string memory\r\n    ) {\r\n        return (sponsor, sponsorName, demands, contact, img0, location0);\r\n    }\r\n\r\n    function helperInfo() public view returns(\r\n        address, string memory, string memory, string memory\r\n    ) {\r\n        return (helper, helperName, img1, location1);\r\n    }\r\n\r\n    struct charity {\r\n        uint  id;  //需求编号\r\n\r\n        address sponsor;  //发起人address\r\n        address helper;    //捐助者address\r\n\r\n        string sponsorName;  //发起人 or 机构 名称\r\n        string helperName;\r\n\r\n        string demands;   //需求内容\r\n        string contact;   //联系方式\r\n\r\n        string img0;     //佐证材料 \r\n        string img1;\r\n        string location0;  //发起者 位置地区\r\n        string location1;  //捐助者 位置地区\r\n\r\n        uint status;      //互助状态 0:初始 1：通过 2：捐赠中 3：捐赠完成 4：失败\r\n    }\r\n\r\n    function Info() public view returns (\r\n        charity memory\r\n    ) {\r\n        return charity(id, sponsor, helper, sponsorName, helperName, demands, contact, img0, img1, location0, location1, status);\r\n    } \r\n\r\n    function getStatus() public view returns(uint) {\r\n        return status;\r\n    }\r\n\r\n    function update() public { //更新状态 0:初始 1：通过 2：捐赠中 3：捐赠完成 4：失败\r\n        status ++;\r\n        emit Update(id, status);\r\n    }\r\n\r\n    function rollback() public {  //测试用 可以使需求状态回到前一个位置\r\n        status --;\r\n        emit Update(id, status);\r\n    }\r\n\r\n    function failed() public {    //需求中断或失败\r\n        status = 4;\r\n        emit Update(id, status);\r\n    } \r\n\r\n    function destroy() public{      //合约销毁\r\n        require(admin == msg.sender,\"not permit\");\r\n        selfdestruct(msg.sender);\r\n    }\r\n\r\n}\r\n\r\ncontract CharityFactory {\r\n    bytes contractBytecode = type(Charity).creationCode;\r\n    address[] public charities;\r\n    uint index = 0;\r\n\r\n    function deployer(        \r\n        string memory _sponsorName, \r\n        string memory _demands, \r\n        string memory _contact, \r\n        string memory _location0, \r\n        string memory _img0\r\n    ) public {\r\n        address addr;\r\n        bytes memory bytecode = abi.encodePacked(\r\n            contractBytecode, \r\n            abi.encode(\r\n                index, \r\n                msg.sender,\r\n                _sponsorName, \r\n                _demands, \r\n                _contact, \r\n                _location0, \r\n                _img0\r\n            )\r\n        );\r\n        assembly {\r\n          addr := create2(0, add(bytecode, 0x20), mload(bytecode), 0)\r\n          if iszero(extcodesize(addr)) {\r\n              revert(0, 0)\r\n          }\r\n        }\r\n\r\n        charities.push(addr);\r\n        index ++;\r\n    }\r\n   \r\n}",
  "sourcePath": "/d/Code/Conflux/create/contracts/CharityFactory.sol",
  "compiler": {
    "name": "solc",
    "version": "0.6.12+commit.27d51765.Linux.g++"
  },
  "schemaVersion": "3.2.0",
  "updatedAt": "2021-04-12T08:36:12.079Z",
  "devdoc": {
    "kind": "dev",
    "methods": {},
    "version": 1
  },
  "userdoc": {
    "kind": "user",
    "methods": {},
    "version": 1
  }
}