{
  "contractName": "Charity",
  "abi": [
    {
      "inputs": [
        {
          "internalType": "address",
          "name": "_admin",
          "type": "address"
        },
        {
          "internalType": "uint256",
          "name": "_id",
          "type": "uint256"
        },
        {
          "internalType": "address",
          "name": "_sponsor",
          "type": "address"
        },
        {
          "internalType": "string",
          "name": "_sponsorName",
          "type": "string"
        },
        {
          "internalType": "string",
          "name": "_demands",
          "type": "string"
        },
        {
          "internalType": "string",
          "name": "_contact",
          "type": "string"
        },
        {
          "internalType": "string",
          "name": "_location0",
          "type": "string"
        },
        {
          "internalType": "string",
          "name": "_img0",
          "type": "string"
        }
      ],
      "stateMutability": "nonpayable",
      "type": "constructor"
    },
    {
      "anonymous": false,
      "inputs": [
        {
          "indexed": false,
          "internalType": "uint256",
          "name": "id",
          "type": "uint256"
        },
        {
          "indexed": false,
          "internalType": "uint256",
          "name": "status",
          "type": "uint256"
        }
      ],
      "name": "Update",
      "type": "event"
    },
    {
      "inputs": [],
      "name": "SPONSOR",
      "outputs": [
        {
          "internalType": "contract SponsorWhitelistControl",
          "name": "",
          "type": "address"
        }
      ],
      "stateMutability": "view",
      "type": "function"
    },
    {
      "inputs": [],
      "name": "admin",
      "outputs": [
        {
          "internalType": "address",
          "name": "",
          "type": "address"
        }
      ],
      "stateMutability": "view",
      "type": "function"
    },
    {
      "inputs": [],
      "name": "helper",
      "outputs": [
        {
          "internalType": "address",
          "name": "",
          "type": "address"
        }
      ],
      "stateMutability": "view",
      "type": "function"
    },
    {
      "inputs": [],
      "name": "id",
      "outputs": [
        {
          "internalType": "uint256",
          "name": "",
          "type": "uint256"
        }
      ],
      "stateMutability": "view",
      "type": "function"
    },
    {
      "inputs": [],
      "name": "sponsor",
      "outputs": [
        {
          "internalType": "address",
          "name": "",
          "type": "address"
        }
      ],
      "stateMutability": "view",
      "type": "function"
    },
    {
      "inputs": [],
      "name": "sponsorInfo",
      "outputs": [
        {
          "internalType": "address",
          "name": "",
          "type": "address"
        },
        {
          "internalType": "string",
          "name": "",
          "type": "string"
        },
        {
          "internalType": "string",
          "name": "",
          "type": "string"
        },
        {
          "internalType": "string",
          "name": "",
          "type": "string"
        },
        {
          "internalType": "string",
          "name": "",
          "type": "string"
        },
        {
          "internalType": "string",
          "name": "",
          "type": "string"
        }
      ],
      "stateMutability": "view",
      "type": "function"
    },
    {
      "inputs": [],
      "name": "helperInfo",
      "outputs": [
        {
          "internalType": "address",
          "name": "",
          "type": "address"
        },
        {
          "internalType": "string",
          "name": "",
          "type": "string"
        },
        {
          "internalType": "string",
          "name": "",
          "type": "string"
        },
        {
          "internalType": "string",
          "name": "",
          "type": "string"
        }
      ],
      "stateMutability": "view",
      "type": "function"
    },
    {
      "inputs": [],
      "name": "Info",
      "outputs": [
        {
          "components": [
            {
              "internalType": "uint256",
              "name": "id",
              "type": "uint256"
            },
            {
              "internalType": "address",
              "name": "sponsor",
              "type": "address"
            },
            {
              "internalType": "address",
              "name": "helper",
              "type": "address"
            },
            {
              "internalType": "string",
              "name": "sponsorName",
              "type": "string"
            },
            {
              "internalType": "string",
              "name": "helperName",
              "type": "string"
            },
            {
              "internalType": "string",
              "name": "demands",
              "type": "string"
            },
            {
              "internalType": "string",
              "name": "contact",
              "type": "string"
            },
            {
              "internalType": "string",
              "name": "img0",
              "type": "string"
            },
            {
              "internalType": "string",
              "name": "img1",
              "type": "string"
            },
            {
              "internalType": "string",
              "name": "location0",
              "type": "string"
            },
            {
              "internalType": "string",
              "name": "location1",
              "type": "string"
            },
            {
              "internalType": "string",
              "name": "express",
              "type": "string"
            },
            {
              "internalType": "uint256",
              "name": "status",
              "type": "uint256"
            }
          ],
          "internalType": "struct CharityLib.info",
          "name": "",
          "type": "tuple"
        }
      ],
      "stateMutability": "view",
      "type": "function"
    },
    {
      "inputs": [
        {
          "internalType": "string",
          "name": "_helperName",
          "type": "string"
        },
        {
          "internalType": "string",
          "name": "_img1",
          "type": "string"
        },
        {
          "internalType": "string",
          "name": "_location1",
          "type": "string"
        },
        {
          "internalType": "string",
          "name": "_express",
          "type": "string"
        }
      ],
      "name": "Donate",
      "outputs": [],
      "stateMutability": "nonpayable",
      "type": "function"
    },
    {
      "inputs": [],
      "name": "getStatus",
      "outputs": [
        {
          "internalType": "uint256",
          "name": "",
          "type": "uint256"
        }
      ],
      "stateMutability": "view",
      "type": "function"
    },
    {
      "inputs": [],
      "name": "update",
      "outputs": [],
      "stateMutability": "nonpayable",
      "type": "function"
    },
    {
      "inputs": [],
      "name": "failed",
      "outputs": [],
      "stateMutability": "nonpayable",
      "type": "function"
    },
    {
      "inputs": [],
      "name": "destroy",
      "outputs": [],
      "stateMutability": "nonpayable",
      "type": "function"
    }
  ],
  "bytecode": "0x60806040523480156200001157600080fd5b5060405162001ec838038062001ec8833981810160405281019062000037919062000396565b876000806101000a81548173ffffffffffffffffffffffffffffffffffffffff021916908373ffffffffffffffffffffffffffffffffffffffff1602179055508660018190555085600260006101000a81548173ffffffffffffffffffffffffffffffffffffffff021916908373ffffffffffffffffffffffffffffffffffffffff1602179055508460049080519060200190620000d792919062000266565b508360069080519060200190620000f092919062000266565b5082600790805190602001906200010992919062000266565b5081600a90805190602001906200012292919062000266565b5080600890805190602001906200013b92919062000266565b506060600167ffffffffffffffff811180156200015757600080fd5b50604051908082528060200260200182016040528015620001875781602001602082028036833780820191505090505b5090506000816000815181106200019a57fe5b602002602001019073ffffffffffffffffffffffffffffffffffffffff16908173ffffffffffffffffffffffffffffffffffffffff168152505073088800000000000000000000000000000000000173ffffffffffffffffffffffffffffffffffffffff166310128d3e826040518263ffffffff1660e01b81526004016200022391906200056b565b600060405180830381600087803b1580156200023e57600080fd5b505af115801562000253573d6000803e3d6000fd5b50505050505050505050505050620006cb565b828054600181600116156101000203166002900490600052602060002090601f016020900481019282601f10620002a957805160ff1916838001178555620002da565b82800160010185558215620002da579182015b82811115620002d9578251825591602001919060010190620002bc565b5b509050620002e99190620002ed565b5090565b5b8082111562000308576000816000905550600101620002ee565b5090565b6000815190506200031d8162000697565b92915050565b600082601f8301126200033557600080fd5b81516200034c6200034682620005bd565b6200058f565b915080825260208301602083018583830111156200036957600080fd5b6200037683828462000661565b50505092915050565b6000815190506200039081620006b1565b92915050565b600080600080600080600080610100898b031215620003b457600080fd5b6000620003c48b828c016200030c565b9850506020620003d78b828c016200037f565b9750506040620003ea8b828c016200030c565b965050606089015167ffffffffffffffff8111156200040857600080fd5b620004168b828c0162000323565b955050608089015167ffffffffffffffff8111156200043457600080fd5b620004428b828c0162000323565b94505060a089015167ffffffffffffffff8111156200046057600080fd5b6200046e8b828c0162000323565b93505060c089015167ffffffffffffffff8111156200048c57600080fd5b6200049a8b828c0162000323565b92505060e089015167ffffffffffffffff811115620004b857600080fd5b620004c68b828c0162000323565b9150509295985092959890939650565b6000620004e48383620004f0565b60208301905092915050565b620004fb8162000623565b82525050565b60006200050e82620005fa565b6200051a818562000612565b93506200052783620005ea565b8060005b838110156200055e578151620005428882620004d6565b97506200054f8362000605565b9250506001810190506200052b565b5085935050505092915050565b6000602082019050818103600083015262000587818462000501565b905092915050565b6000604051905081810181811067ffffffffffffffff82111715620005b357600080fd5b8060405250919050565b600067ffffffffffffffff821115620005d557600080fd5b601f19601f8301169050602081019050919050565b6000819050602082019050919050565b600081519050919050565b6000602082019050919050565b600082825260208201905092915050565b6000620006308262000637565b9050919050565b600073ffffffffffffffffffffffffffffffffffffffff82169050919050565b6000819050919050565b60005b838110156200068157808201518184015260208101905062000664565b8381111562000691576000848401525b50505050565b620006a28162000623565b8114620006ae57600080fd5b50565b620006bc8162000657565b8114620006c857600080fd5b50565b6117ed80620006db6000396000f3fe608060405234801561001057600080fd5b50600436106100cf5760003560e01c806383197ef01161008c578063ba414fa611610066578063ba414fa6146101bd578063ba74d1c4146101c7578063cfa20823146101ea578063f851a44014610206576100cf565b806383197ef01461018b578063a2e6204514610195578063af640d0f1461019f576100cf565b80631d073a7a146100d4578063287e89dd146100f25780634012e02e146101135780634e69d5601461013157806363b0e66a1461014f57806377c936621461016d575b600080fd5b6100dc610224565b6040516100e991906115dd565b60405180910390f35b6100fa61023c565b60405161010a94939291906114ff565b60405180910390f35b61011b61044e565b6040516101289190611618565b60405180910390f35b610139610a91565b604051610146919061163a565b60405180910390f35b610157610a9b565b60405161016491906114e4565b60405180910390f35b610175610ac1565b60405161018291906114e4565b60405180910390f35b610193610ae7565b005b61019d610b8e565b005b6101a7610bdf565b6040516101b4919061163a565b60405180910390f35b6101c5610be5565b005b6101cf610c2c565b6040516101e196959493929190611559565b60405180910390f35b61020460048036038101906101ff91906111d3565b610f83565b005b61020e61102a565b60405161021b91906114e4565b60405180910390f35b73088800000000000000000000000000000000000181565b60006060806060600360009054906101000a900473ffffffffffffffffffffffffffffffffffffffff1660056009600b828054600181600116156101000203166002900480601f0160208091040260200160405190810160405280929190818152602001828054600181600116156101000203166002900480156103015780601f106102d657610100808354040283529160200191610301565b820191906000526020600020905b8154815290600101906020018083116102e457829003601f168201915b50505050509250818054600181600116156101000203166002900480601f01602080910402602001604051908101604052809291908181526020018280546001816001161561010002031660029004801561039d5780601f106103725761010080835404028352916020019161039d565b820191906000526020600020905b81548152906001019060200180831161038057829003601f168201915b50505050509150808054600181600116156101000203166002900480601f0160208091040260200160405190810160405280929190818152602001828054600181600116156101000203166002900480156104395780601f1061040e57610100808354040283529160200191610439565b820191906000526020600020905b81548152906001019060200180831161041c57829003601f168201915b50505050509050935093509350935090919293565b61045661104e565b604051806101a001604052806001548152602001600260009054906101000a900473ffffffffffffffffffffffffffffffffffffffff1673ffffffffffffffffffffffffffffffffffffffff168152602001600360009054906101000a900473ffffffffffffffffffffffffffffffffffffffff1673ffffffffffffffffffffffffffffffffffffffff16815260200160048054600181600116156101000203166002900480601f01602080910402602001604051908101604052809291908181526020018280546001816001161561010002031660029004801561057c5780601f106105515761010080835404028352916020019161057c565b820191906000526020600020905b81548152906001019060200180831161055f57829003601f168201915b5050505050815260200160058054600181600116156101000203166002900480601f01602080910402602001604051908101604052809291908181526020018280546001816001161561010002031660029004801561061c5780601f106105f15761010080835404028352916020019161061c565b820191906000526020600020905b8154815290600101906020018083116105ff57829003601f168201915b5050505050815260200160068054600181600116156101000203166002900480601f0160208091040260200160405190810160405280929190818152602001828054600181600116156101000203166002900480156106bc5780601f10610691576101008083540402835291602001916106bc565b820191906000526020600020905b81548152906001019060200180831161069f57829003601f168201915b5050505050815260200160078054600181600116156101000203166002900480601f01602080910402602001604051908101604052809291908181526020018280546001816001161561010002031660029004801561075c5780601f106107315761010080835404028352916020019161075c565b820191906000526020600020905b81548152906001019060200180831161073f57829003601f168201915b5050505050815260200160088054600181600116156101000203166002900480601f0160208091040260200160405190810160405280929190818152602001828054600181600116156101000203166002900480156107fc5780601f106107d1576101008083540402835291602001916107fc565b820191906000526020600020905b8154815290600101906020018083116107df57829003601f168201915b5050505050815260200160098054600181600116156101000203166002900480601f01602080910402602001604051908101604052809291908181526020018280546001816001161561010002031660029004801561089c5780601f106108715761010080835404028352916020019161089c565b820191906000526020600020905b81548152906001019060200180831161087f57829003601f168201915b50505050508152602001600a8054600181600116156101000203166002900480601f01602080910402602001604051908101604052809291908181526020018280546001816001161561010002031660029004801561093c5780601f106109115761010080835404028352916020019161093c565b820191906000526020600020905b81548152906001019060200180831161091f57829003601f168201915b50505050508152602001600b8054600181600116156101000203166002900480601f0160208091040260200160405190810160405280929190818152602001828054600181600116156101000203166002900480156109dc5780601f106109b1576101008083540402835291602001916109dc565b820191906000526020600020905b8154815290600101906020018083116109bf57829003601f168201915b50505050508152602001600c8054600181600116156101000203166002900480601f016020809104026020016040519081016040528092919081815260200182805460018160011615610100020316600290048015610a7c5780601f10610a5157610100808354040283529160200191610a7c565b820191906000526020600020905b815481529060010190602001808311610a5f57829003601f168201915b50505050508152602001600d54815250905090565b6000600d54905090565b600360009054906101000a900473ffffffffffffffffffffffffffffffffffffffff1681565b600260009054906101000a900473ffffffffffffffffffffffffffffffffffffffff1681565b3373ffffffffffffffffffffffffffffffffffffffff1660008054906101000a900473ffffffffffffffffffffffffffffffffffffffff1673ffffffffffffffffffffffffffffffffffffffff1614610b75576040517f08c379a0000000000000000000000000000000000000000000000000000000008152600401610b6c906115f8565b60405180910390fd5b3373ffffffffffffffffffffffffffffffffffffffff16ff5b600d600081548092919060010191905055507f8ecf343d22d1934aea3fb34b7332371552b19286c5bc696adae16c7690a90d54600154600d54604051610bd5929190611655565b60405180910390a1565b60015481565b6009600d819055507f8ecf343d22d1934aea3fb34b7332371552b19286c5bc696adae16c7690a90d54600154600d54604051610c22929190611655565b60405180910390a1565b60006060806060806060600260009054906101000a900473ffffffffffffffffffffffffffffffffffffffff166004600660076008600a848054600181600116156101000203166002900480601f016020809104026020016040519081016040528092919081815260200182805460018160011615610100020316600290048015610cf85780601f10610ccd57610100808354040283529160200191610cf8565b820191906000526020600020905b815481529060010190602001808311610cdb57829003601f168201915b50505050509450838054600181600116156101000203166002900480601f016020809104026020016040519081016040528092919081815260200182805460018160011615610100020316600290048015610d945780601f10610d6957610100808354040283529160200191610d94565b820191906000526020600020905b815481529060010190602001808311610d7757829003601f168201915b50505050509350828054600181600116156101000203166002900480601f016020809104026020016040519081016040528092919081815260200182805460018160011615610100020316600290048015610e305780601f10610e0557610100808354040283529160200191610e30565b820191906000526020600020905b815481529060010190602001808311610e1357829003601f168201915b50505050509250818054600181600116156101000203166002900480601f016020809104026020016040519081016040528092919081815260200182805460018160011615610100020316600290048015610ecc5780601f10610ea157610100808354040283529160200191610ecc565b820191906000526020600020905b815481529060010190602001808311610eaf57829003601f168201915b50505050509150808054600181600116156101000203166002900480601f016020809104026020016040519081016040528092919081815260200182805460018160011615610100020316600290048015610f685780601f10610f3d57610100808354040283529160200191610f68565b820191906000526020600020905b815481529060010190602001808311610f4b57829003601f168201915b50505050509050955095509550955095509550909192939495565b8360059080519060200190610f999291906110e2565b508260099080519060200190610fb09291906110e2565b5081600b9080519060200190610fc79291906110e2565b5080600c9080519060200190610fde9291906110e2565b50610fe7610b8e565b7f8ecf343d22d1934aea3fb34b7332371552b19286c5bc696adae16c7690a90d54600154600d5460405161101c929190611655565b60405180910390a150505050565b60008054906101000a900473ffffffffffffffffffffffffffffffffffffffff1681565b604051806101a0016040528060008152602001600073ffffffffffffffffffffffffffffffffffffffff168152602001600073ffffffffffffffffffffffffffffffffffffffff168152602001606081526020016060815260200160608152602001606081526020016060815260200160608152602001606081526020016060815260200160608152602001600081525090565b828054600181600116156101000203166002900490600052602060002090601f016020900481019282601f1061112357805160ff1916838001178555611151565b82800160010185558215611151579182015b82811115611150578251825591602001919060010190611135565b5b50905061115e9190611162565b5090565b5b8082111561117b576000816000905550600101611163565b5090565b600082601f83011261119057600080fd5b81356111a361119e826116ab565b61167e565b915080825260208301602083018583830111156111bf57600080fd5b6111ca838284611764565b50505092915050565b600080600080608085870312156111e957600080fd5b600085013567ffffffffffffffff81111561120357600080fd5b61120f8782880161117f565b945050602085013567ffffffffffffffff81111561122c57600080fd5b6112388782880161117f565b935050604085013567ffffffffffffffff81111561125557600080fd5b6112618782880161117f565b925050606085013567ffffffffffffffff81111561127e57600080fd5b61128a8782880161117f565b91505092959194509250565b61129f81611704565b82525050565b6112ae81611704565b82525050565b6112bd81611740565b82525050565b60006112ce826116d7565b6112d881856116e2565b93506112e8818560208601611773565b6112f1816117a6565b840191505092915050565b6000611307826116d7565b61131181856116f3565b9350611321818560208601611773565b61132a816117a6565b840191505092915050565b6000611342600a836116f3565b91507f6e6f74207065726d6974000000000000000000000000000000000000000000006000830152602082019050919050565b60006101a08301600083015161138e60008601826114c6565b5060208301516113a16020860182611296565b5060408301516113b46040860182611296565b50606083015184820360608601526113cc82826112c3565b915050608083015184820360808601526113e682826112c3565b91505060a083015184820360a086015261140082826112c3565b91505060c083015184820360c086015261141a82826112c3565b91505060e083015184820360e086015261143482826112c3565b91505061010083015184820361010086015261145082826112c3565b91505061012083015184820361012086015261146c82826112c3565b91505061014083015184820361014086015261148882826112c3565b9150506101608301518482036101608601526114a482826112c3565b9150506101808301516114bb6101808601826114c6565b508091505092915050565b6114cf81611736565b82525050565b6114de81611736565b82525050565b60006020820190506114f960008301846112a5565b92915050565b600060808201905061151460008301876112a5565b818103602083015261152681866112fc565b9050818103604083015261153a81856112fc565b9050818103606083015261154e81846112fc565b905095945050505050565b600060c08201905061156e60008301896112a5565b818103602083015261158081886112fc565b9050818103604083015261159481876112fc565b905081810360608301526115a881866112fc565b905081810360808301526115bc81856112fc565b905081810360a08301526115d081846112fc565b9050979650505050505050565b60006020820190506115f260008301846112b4565b92915050565b6000602082019050818103600083015261161181611335565b9050919050565b600060208201905081810360008301526116328184611375565b905092915050565b600060208201905061164f60008301846114d5565b92915050565b600060408201905061166a60008301856114d5565b61167760208301846114d5565b9392505050565b6000604051905081810181811067ffffffffffffffff821117156116a157600080fd5b8060405250919050565b600067ffffffffffffffff8211156116c257600080fd5b601f19601f8301169050602081019050919050565b600081519050919050565b600082825260208201905092915050565b600082825260208201905092915050565b600061170f82611716565b9050919050565b600073ffffffffffffffffffffffffffffffffffffffff82169050919050565b6000819050919050565b600061174b82611752565b9050919050565b600061175d82611716565b9050919050565b82818337600083830152505050565b60005b83811015611791578082015181840152602081019050611776565b838111156117a0576000848401525b50505050565b6000601f19601f830116905091905056fea2646970667358221220e06b6e9644b4d25d3599ba70f231478aec6716bc057298d8bac5ee4adb457ef664736f6c634300060c0033",
  "immutableReferences": {},
  "source": "pragma solidity >=0.5.0 <0.7.0;\r\npragma experimental ABIEncoderV2;\r\n\r\nimport \"../library/CharityLib.sol\";\r\nimport \"../library/SponsorWhitelistControl.sol\";\r\n\r\n/*-NFT */\r\ninterface CharityMedal {\r\n   function awardItem(address player) external returns (uint256);\r\n}\r\n\r\ncontract Charity {\r\n    SponsorWhitelistControl constant public SPONSOR = SponsorWhitelistControl(0x0888000000000000000000000000000000000001);\r\n\r\n    address public admin;\r\n\r\n    uint public id;  //\r\n\r\n    address public sponsor;  //address\r\n    address public helper;    //address\r\n\r\n    string sponsorName;  // or  \r\n    string helperName;\r\n\r\n    string demands;   //\r\n    string contact;   //\r\n\r\n    string img0;     // \r\n    string img1;\r\n    string location0;  // \r\n    string location1;  // \r\n    string express;    //\r\n\r\n    uint status;      // 0: 1 2 3 -1\r\n\r\n    event Update(uint id, uint status);\r\n\r\n    constructor(\r\n        address _admin,\r\n        uint _id, \r\n        address _sponsor,\r\n        string memory _sponsorName, \r\n        string memory _demands, \r\n        string memory _contact, \r\n        string memory _location0, \r\n        string memory _img0\r\n    ) public { \r\n        admin = _admin;\r\n        id = _id;\r\n        sponsor = _sponsor;\r\n        sponsorName = _sponsorName;\r\n        demands = _demands;\r\n        contact = _contact;\r\n        location0 = _location0;\r\n        img0 = _img0;\r\n        address[] memory users = new address[](1);\r\n        users[0] = address(0);\r\n        SPONSOR.addPrivilege(users);\r\n    }\r\n\r\n    function sponsorInfo() public view returns(\r\n        address, string memory, string memory, string memory, string memory, string memory\r\n    ) {\r\n        return (sponsor, sponsorName, demands, contact, img0, location0);\r\n    }\r\n\r\n    function helperInfo() public view returns(\r\n        address, string memory, string memory, string memory\r\n    ) {\r\n        return (helper, helperName, img1, location1);\r\n    }\r\n\r\n    function Info() public view returns (\r\n        CharityLib.info memory\r\n    ) {\r\n        return CharityLib.info(id, sponsor, helper, sponsorName, helperName, demands, contact, img0, img1, location0, location1, express, status);\r\n    } \r\n\r\n    function Donate(\r\n        string memory _helperName, \r\n        string memory _img1, \r\n        string memory _location1, \r\n        string memory _express\r\n    ) public {\r\n        helperName = _helperName;\r\n        img1 = _img1;\r\n        location1 = _location1;\r\n        express = _express;\r\n        update();\r\n        emit Update(id, status);\r\n    }\r\n\r\n    function getStatus() public view returns(uint) {\r\n        return status;\r\n    }\r\n\r\n    function update() public { // 0: 1 2 3 9\r\n        status ++;\r\n        emit Update(id, status);\r\n    }\r\n\r\n    function failed() public {    //\r\n        status = 9;\r\n        emit Update(id, status);\r\n    } \r\n\r\n    function destroy() public{      //\r\n        require(admin == msg.sender,\"not permit\");\r\n        selfdestruct(msg.sender);\r\n    }\r\n\r\n}\r\n\r\ncontract CharityFactory {\r\n    SponsorWhitelistControl constant public SPONSOR = SponsorWhitelistControl(0x0888000000000000000000000000000000000001);\r\n    CharityMedal cm = CharityMedal(0x8529E362A6ECf262a981922dDb17FB5F814fEC34);\r\n    bytes contractBytecode = type(Charity).creationCode;\r\n    address[] public charities;\r\n    uint public index = 0;\r\n    address admin;\r\n\r\n    mapping(address => address[]) public myDemands;\r\n    mapping(address => address[]) public myDonates;\r\n\r\n    constructor() public {\r\n        admin = msg.sender;\r\n        address[] memory users = new address[](1);\r\n        users[0] = address(0);\r\n        SPONSOR.addPrivilege(users);\r\n    }\r\n\r\n    function deployer(        \r\n        string memory _sponsorName, \r\n        string memory _demands, \r\n        string memory _contact, \r\n        string memory _location0, \r\n        string memory _img0\r\n    ) public {\r\n        address addr;\r\n        bytes memory bytecode = abi.encodePacked(\r\n            contractBytecode, \r\n            abi.encode(\r\n                admin,\r\n                index, \r\n                msg.sender,\r\n                _sponsorName, \r\n                _demands, \r\n                _contact, \r\n                _location0, \r\n                _img0\r\n            )\r\n        );\r\n        assembly {\r\n          addr := create2(0, add(bytecode, 0x20), mload(bytecode), 0)\r\n          if iszero(extcodesize(addr)) {\r\n              revert(0, 0)\r\n          }\r\n        }\r\n\r\n        charities.push(addr);\r\n        myDemands[msg.sender].push(addr);\r\n        index ++;\r\n    }\r\n\r\n    function getMyDemands(address user) public view returns (address[] memory){\r\n        return myDemands[user];\r\n    }\r\n\r\n    function complete(address charity_addr) public {\r\n        Charity charity = Charity(charity_addr);\r\n        require(charity.sponsor() == msg.sender, \"illegal operation\");\r\n        charity.update();\r\n        cm.awardItem(charity.helper());\r\n    }\r\n   \r\n    function destroy() public{      //\r\n        require(admin == msg.sender,\"not permit\");\r\n        selfdestruct(msg.sender);\r\n    }\r\n}",
  "sourcePath": "/d//JustDonate-dev/CharityFactory/contracts/CharityFactory.sol",
  "compiler": {
    "name": "solc",
    "version": "0.6.12+commit.27d51765.Emscripten.clang"
  },
  "schemaVersion": "3.2.0",
  "updatedAt": "2021-07-11T15:16:11.231Z",
  "devdoc": {
    "kind": "dev",
    "methods": {},
    "version": 1
  },
  "userdoc": {
    "kind": "user",
    "methods": {},
    "version": 1
  }
}