{
  "contractName": "Charity",
  "abi": [
    {
      "inputs": [
        {
          "internalType": "address",
          "name": "_admin",
          "type": "address"
        },
        {
          "internalType": "uint256",
          "name": "_id",
          "type": "uint256"
        },
        {
          "internalType": "address",
          "name": "_sponsor",
          "type": "address"
        },
        {
          "internalType": "string",
          "name": "_sponsorName",
          "type": "string"
        },
        {
          "internalType": "string",
          "name": "_demands",
          "type": "string"
        },
        {
          "internalType": "string",
          "name": "_contact",
          "type": "string"
        },
        {
          "internalType": "string",
          "name": "_location0",
          "type": "string"
        },
        {
          "internalType": "string",
          "name": "_img0",
          "type": "string"
        }
      ],
      "stateMutability": "nonpayable",
      "type": "constructor"
    },
    {
      "anonymous": false,
      "inputs": [
        {
          "indexed": false,
          "internalType": "uint256",
          "name": "id",
          "type": "uint256"
        },
        {
          "indexed": false,
          "internalType": "uint256",
          "name": "status",
          "type": "uint256"
        }
      ],
      "name": "Update",
      "type": "event"
    },
    {
      "inputs": [],
      "name": "SPONSOR",
      "outputs": [
        {
          "internalType": "contract SponsorWhitelistControl",
          "name": "",
          "type": "address"
        }
      ],
      "stateMutability": "view",
      "type": "function"
    },
    {
      "inputs": [],
      "name": "admin",
      "outputs": [
        {
          "internalType": "address",
          "name": "",
          "type": "address"
        }
      ],
      "stateMutability": "view",
      "type": "function"
    },
    {
      "inputs": [],
      "name": "id",
      "outputs": [
        {
          "internalType": "uint256",
          "name": "",
          "type": "uint256"
        }
      ],
      "stateMutability": "view",
      "type": "function"
    },
    {
      "inputs": [],
      "name": "sponsorInfo",
      "outputs": [
        {
          "internalType": "address",
          "name": "",
          "type": "address"
        },
        {
          "internalType": "string",
          "name": "",
          "type": "string"
        },
        {
          "internalType": "string",
          "name": "",
          "type": "string"
        },
        {
          "internalType": "string",
          "name": "",
          "type": "string"
        },
        {
          "internalType": "string",
          "name": "",
          "type": "string"
        },
        {
          "internalType": "string",
          "name": "",
          "type": "string"
        }
      ],
      "stateMutability": "view",
      "type": "function"
    },
    {
      "inputs": [],
      "name": "helperInfo",
      "outputs": [
        {
          "internalType": "address",
          "name": "",
          "type": "address"
        },
        {
          "internalType": "string",
          "name": "",
          "type": "string"
        },
        {
          "internalType": "string",
          "name": "",
          "type": "string"
        },
        {
          "internalType": "string",
          "name": "",
          "type": "string"
        }
      ],
      "stateMutability": "view",
      "type": "function"
    },
    {
      "inputs": [],
      "name": "Info",
      "outputs": [
        {
          "components": [
            {
              "internalType": "uint256",
              "name": "id",
              "type": "uint256"
            },
            {
              "internalType": "address",
              "name": "sponsor",
              "type": "address"
            },
            {
              "internalType": "address",
              "name": "helper",
              "type": "address"
            },
            {
              "internalType": "string",
              "name": "sponsorName",
              "type": "string"
            },
            {
              "internalType": "string",
              "name": "helperName",
              "type": "string"
            },
            {
              "internalType": "string",
              "name": "demands",
              "type": "string"
            },
            {
              "internalType": "string",
              "name": "contact",
              "type": "string"
            },
            {
              "internalType": "string",
              "name": "img0",
              "type": "string"
            },
            {
              "internalType": "string",
              "name": "img1",
              "type": "string"
            },
            {
              "internalType": "string",
              "name": "location0",
              "type": "string"
            },
            {
              "internalType": "string",
              "name": "location1",
              "type": "string"
            },
            {
              "internalType": "string",
              "name": "express",
              "type": "string"
            },
            {
              "internalType": "uint256",
              "name": "status",
              "type": "uint256"
            }
          ],
          "internalType": "struct CharityLib.info",
          "name": "",
          "type": "tuple"
        }
      ],
      "stateMutability": "view",
      "type": "function"
    },
    {
      "inputs": [
        {
          "internalType": "string",
          "name": "_helperName",
          "type": "string"
        },
        {
          "internalType": "string",
          "name": "_img1",
          "type": "string"
        },
        {
          "internalType": "string",
          "name": "_location1",
          "type": "string"
        },
        {
          "internalType": "string",
          "name": "_express",
          "type": "string"
        }
      ],
      "name": "Donate",
      "outputs": [],
      "stateMutability": "nonpayable",
      "type": "function"
    },
    {
      "inputs": [],
      "name": "getStatus",
      "outputs": [
        {
          "internalType": "uint256",
          "name": "",
          "type": "uint256"
        }
      ],
      "stateMutability": "view",
      "type": "function"
    },
    {
      "inputs": [],
      "name": "update",
      "outputs": [],
      "stateMutability": "nonpayable",
      "type": "function"
    },
    {
      "inputs": [],
      "name": "rollback",
      "outputs": [],
      "stateMutability": "nonpayable",
      "type": "function"
    },
    {
      "inputs": [],
      "name": "complete",
      "outputs": [],
      "stateMutability": "nonpayable",
      "type": "function"
    },
    {
      "inputs": [],
      "name": "failed",
      "outputs": [],
      "stateMutability": "nonpayable",
      "type": "function"
    },
    {
      "inputs": [],
      "name": "destroy",
      "outputs": [],
      "stateMutability": "nonpayable",
      "type": "function"
    }
  ],
  "bytecode": "0x6080604052738529e362a6ecf262a981922ddb17fb5f814fec346000806101000a81548173ffffffffffffffffffffffffffffffffffffffff021916908373ffffffffffffffffffffffffffffffffffffffff1602179055503480156200006557600080fd5b506040516200214c3803806200214c83398181016040528101906200008b9190620003eb565b87600160006101000a81548173ffffffffffffffffffffffffffffffffffffffff021916908373ffffffffffffffffffffffffffffffffffffffff1602179055508660028190555085600360006101000a81548173ffffffffffffffffffffffffffffffffffffffff021916908373ffffffffffffffffffffffffffffffffffffffff16021790555084600590805190602001906200012c929190620002bb565b50836007908051906020019062000145929190620002bb565b5082600890805190602001906200015e929190620002bb565b5081600b908051906020019062000177929190620002bb565b50806009908051906020019062000190929190620002bb565b506060600167ffffffffffffffff81118015620001ac57600080fd5b50604051908082528060200260200182016040528015620001dc5781602001602082028036833780820191505090505b509050600081600081518110620001ef57fe5b602002602001019073ffffffffffffffffffffffffffffffffffffffff16908173ffffffffffffffffffffffffffffffffffffffff168152505073088800000000000000000000000000000000000173ffffffffffffffffffffffffffffffffffffffff166310128d3e826040518263ffffffff1660e01b8152600401620002789190620005c0565b600060405180830381600087803b1580156200029357600080fd5b505af1158015620002a8573d6000803e3d6000fd5b5050505050505050505050505062000720565b828054600181600116156101000203166002900490600052602060002090601f016020900481019282601f10620002fe57805160ff19168380011785556200032f565b828001600101855582156200032f579182015b828111156200032e57825182559160200191906001019062000311565b5b5090506200033e919062000342565b5090565b5b808211156200035d57600081600090555060010162000343565b5090565b6000815190506200037281620006ec565b92915050565b600082601f8301126200038a57600080fd5b8151620003a16200039b8262000612565b620005e4565b91508082526020830160208301858383011115620003be57600080fd5b620003cb838284620006b6565b50505092915050565b600081519050620003e58162000706565b92915050565b600080600080600080600080610100898b0312156200040957600080fd5b6000620004198b828c0162000361565b98505060206200042c8b828c01620003d4565b97505060406200043f8b828c0162000361565b965050606089015167ffffffffffffffff8111156200045d57600080fd5b6200046b8b828c0162000378565b955050608089015167ffffffffffffffff8111156200048957600080fd5b620004978b828c0162000378565b94505060a089015167ffffffffffffffff811115620004b557600080fd5b620004c38b828c0162000378565b93505060c089015167ffffffffffffffff811115620004e157600080fd5b620004ef8b828c0162000378565b92505060e089015167ffffffffffffffff8111156200050d57600080fd5b6200051b8b828c0162000378565b9150509295985092959890939650565b600062000539838362000545565b60208301905092915050565b620005508162000678565b82525050565b600062000563826200064f565b6200056f818562000667565b93506200057c836200063f565b8060005b83811015620005b35781516200059788826200052b565b9750620005a4836200065a565b92505060018101905062000580565b5085935050505092915050565b60006020820190508181036000830152620005dc818462000556565b905092915050565b6000604051905081810181811067ffffffffffffffff821117156200060857600080fd5b8060405250919050565b600067ffffffffffffffff8211156200062a57600080fd5b601f19601f8301169050602081019050919050565b6000819050602082019050919050565b600081519050919050565b6000602082019050919050565b600082825260208201905092915050565b600062000685826200068c565b9050919050565b600073ffffffffffffffffffffffffffffffffffffffff82169050919050565b6000819050919050565b60005b83811015620006d6578082015181840152602081019050620006b9565b83811115620006e6576000848401525b50505050565b620006f78162000678565b81146200070357600080fd5b50565b6200071181620006ac565b81146200071d57600080fd5b50565b611a1c80620007306000396000f3fe608060405234801561001057600080fd5b50600436106100cf5760003560e01c80639afd9d781161008c578063ba414fa611610066578063ba414fa614610195578063ba74d1c41461019f578063cfa20823146101c2578063f851a440146101de576100cf565b80639afd9d7814610163578063a2e620451461016d578063af640d0f14610177576100cf565b80631d073a7a146100d4578063287e89dd146100f25780634012e02e146101135780634e69d56014610131578063522e11771461014f57806383197ef014610159575b600080fd5b6100dc6101fc565b6040516100e9919061179f565b60405180910390f35b6100fa610214565b60405161010a94939291906116c1565b60405180910390f35b61011b610426565b60405161012891906117fa565b60405180910390f35b610139610a69565b604051610146919061181c565b60405180910390f35b610157610a73565b005b610161610bab565b005b61016b610c54565b005b610175610ca6565b005b61017f610cf7565b60405161018c919061181c565b60405180910390f35b61019d610cfd565b005b6101a7610d44565b6040516101b99695949392919061171b565b60405180910390f35b6101dc60048036038101906101d79190611302565b61109b565b005b6101e6611142565b6040516101f3919061168b565b60405180910390f35b73088800000000000000000000000000000000000181565b60006060806060600460009054906101000a900473ffffffffffffffffffffffffffffffffffffffff166006600a600c828054600181600116156101000203166002900480601f0160208091040260200160405190810160405280929190818152602001828054600181600116156101000203166002900480156102d95780601f106102ae576101008083540402835291602001916102d9565b820191906000526020600020905b8154815290600101906020018083116102bc57829003601f168201915b50505050509250818054600181600116156101000203166002900480601f0160208091040260200160405190810160405280929190818152602001828054600181600116156101000203166002900480156103755780601f1061034a57610100808354040283529160200191610375565b820191906000526020600020905b81548152906001019060200180831161035857829003601f168201915b50505050509150808054600181600116156101000203166002900480601f0160208091040260200160405190810160405280929190818152602001828054600181600116156101000203166002900480156104115780601f106103e657610100808354040283529160200191610411565b820191906000526020600020905b8154815290600101906020018083116103f457829003601f168201915b50505050509050935093509350935090919293565b61042e611168565b604051806101a001604052806002548152602001600360009054906101000a900473ffffffffffffffffffffffffffffffffffffffff1673ffffffffffffffffffffffffffffffffffffffff168152602001600460009054906101000a900473ffffffffffffffffffffffffffffffffffffffff1673ffffffffffffffffffffffffffffffffffffffff16815260200160058054600181600116156101000203166002900480601f0160208091040260200160405190810160405280929190818152602001828054600181600116156101000203166002900480156105545780601f1061052957610100808354040283529160200191610554565b820191906000526020600020905b81548152906001019060200180831161053757829003601f168201915b5050505050815260200160068054600181600116156101000203166002900480601f0160208091040260200160405190810160405280929190818152602001828054600181600116156101000203166002900480156105f45780601f106105c9576101008083540402835291602001916105f4565b820191906000526020600020905b8154815290600101906020018083116105d757829003601f168201915b5050505050815260200160078054600181600116156101000203166002900480601f0160208091040260200160405190810160405280929190818152602001828054600181600116156101000203166002900480156106945780601f1061066957610100808354040283529160200191610694565b820191906000526020600020905b81548152906001019060200180831161067757829003601f168201915b5050505050815260200160088054600181600116156101000203166002900480601f0160208091040260200160405190810160405280929190818152602001828054600181600116156101000203166002900480156107345780601f1061070957610100808354040283529160200191610734565b820191906000526020600020905b81548152906001019060200180831161071757829003601f168201915b5050505050815260200160098054600181600116156101000203166002900480601f0160208091040260200160405190810160405280929190818152602001828054600181600116156101000203166002900480156107d45780601f106107a9576101008083540402835291602001916107d4565b820191906000526020600020905b8154815290600101906020018083116107b757829003601f168201915b50505050508152602001600a8054600181600116156101000203166002900480601f0160208091040260200160405190810160405280929190818152602001828054600181600116156101000203166002900480156108745780601f1061084957610100808354040283529160200191610874565b820191906000526020600020905b81548152906001019060200180831161085757829003601f168201915b50505050508152602001600b8054600181600116156101000203166002900480601f0160208091040260200160405190810160405280929190818152602001828054600181600116156101000203166002900480156109145780601f106108e957610100808354040283529160200191610914565b820191906000526020600020905b8154815290600101906020018083116108f757829003601f168201915b50505050508152602001600c8054600181600116156101000203166002900480601f0160208091040260200160405190810160405280929190818152602001828054600181600116156101000203166002900480156109b45780601f10610989576101008083540402835291602001916109b4565b820191906000526020600020905b81548152906001019060200180831161099757829003601f168201915b50505050508152602001600d8054600181600116156101000203166002900480601f016020809104026020016040519081016040528092919081815260200182805460018160011615610100020316600290048015610a545780601f10610a2957610100808354040283529160200191610a54565b820191906000526020600020905b815481529060010190602001808311610a3757829003601f168201915b50505050508152602001600e54815250905090565b6000600e54905090565b6002600e5414610ab8576040517f08c379a0000000000000000000000000000000000000000000000000000000008152600401610aaf906117ba565b60405180910390fd5b610ac0610ca6565b7f8ecf343d22d1934aea3fb34b7332371552b19286c5bc696adae16c7690a90d54600254600e54604051610af5929190611837565b60405180910390a160008054906101000a900473ffffffffffffffffffffffffffffffffffffffff1673ffffffffffffffffffffffffffffffffffffffff1663f2fb2120336040518263ffffffff1660e01b8152600401610b5691906116a6565b602060405180830381600087803b158015610b7057600080fd5b505af1158015610b84573d6000803e3d6000fd5b505050506040513d601f19601f82011682018060405250810190610ba891906113c5565b50565b3373ffffffffffffffffffffffffffffffffffffffff16600160009054906101000a900473ffffffffffffffffffffffffffffffffffffffff1673ffffffffffffffffffffffffffffffffffffffff1614610c3b576040517f08c379a0000000000000000000000000000000000000000000000000000000008152600401610c32906117da565b60405180910390fd5b3373ffffffffffffffffffffffffffffffffffffffff16ff5b600e60008154809291906001900391905055507f8ecf343d22d1934aea3fb34b7332371552b19286c5bc696adae16c7690a90d54600254600e54604051610c9c929190611837565b60405180910390a1565b600e600081548092919060010191905055507f8ecf343d22d1934aea3fb34b7332371552b19286c5bc696adae16c7690a90d54600254600e54604051610ced929190611837565b60405180910390a1565b60025481565b6009600e819055507f8ecf343d22d1934aea3fb34b7332371552b19286c5bc696adae16c7690a90d54600254600e54604051610d3a929190611837565b60405180910390a1565b60006060806060806060600360009054906101000a900473ffffffffffffffffffffffffffffffffffffffff166005600760086009600b848054600181600116156101000203166002900480601f016020809104026020016040519081016040528092919081815260200182805460018160011615610100020316600290048015610e105780601f10610de557610100808354040283529160200191610e10565b820191906000526020600020905b815481529060010190602001808311610df357829003601f168201915b50505050509450838054600181600116156101000203166002900480601f016020809104026020016040519081016040528092919081815260200182805460018160011615610100020316600290048015610eac5780601f10610e8157610100808354040283529160200191610eac565b820191906000526020600020905b815481529060010190602001808311610e8f57829003601f168201915b50505050509350828054600181600116156101000203166002900480601f016020809104026020016040519081016040528092919081815260200182805460018160011615610100020316600290048015610f485780601f10610f1d57610100808354040283529160200191610f48565b820191906000526020600020905b815481529060010190602001808311610f2b57829003601f168201915b50505050509250818054600181600116156101000203166002900480601f016020809104026020016040519081016040528092919081815260200182805460018160011615610100020316600290048015610fe45780601f10610fb957610100808354040283529160200191610fe4565b820191906000526020600020905b815481529060010190602001808311610fc757829003601f168201915b50505050509150808054600181600116156101000203166002900480601f0160208091040260200160405190810160405280929190818152602001828054600181600116156101000203166002900480156110805780601f1061105557610100808354040283529160200191611080565b820191906000526020600020905b81548152906001019060200180831161106357829003601f168201915b50505050509050955095509550955095509550909192939495565b83600690805190602001906110b19291906111fc565b5082600a90805190602001906110c89291906111fc565b5081600c90805190602001906110df9291906111fc565b5080600d90805190602001906110f69291906111fc565b506110ff610ca6565b7f8ecf343d22d1934aea3fb34b7332371552b19286c5bc696adae16c7690a90d54600254600e54604051611134929190611837565b60405180910390a150505050565b600160009054906101000a900473ffffffffffffffffffffffffffffffffffffffff1681565b604051806101a0016040528060008152602001600073ffffffffffffffffffffffffffffffffffffffff168152602001600073ffffffffffffffffffffffffffffffffffffffff168152602001606081526020016060815260200160608152602001606081526020016060815260200160608152602001606081526020016060815260200160608152602001600081525090565b828054600181600116156101000203166002900490600052602060002090601f016020900481019282601f1061123d57805160ff191683800117855561126b565b8280016001018555821561126b579182015b8281111561126a57825182559160200191906001019061124f565b5b509050611278919061127c565b5090565b5b8082111561129557600081600090555060010161127d565b5090565b600082601f8301126112aa57600080fd5b81356112bd6112b88261188d565b611860565b915080825260208301602083018583830111156112d957600080fd5b6112e483828461197c565b50505092915050565b6000815190506112fc816119cf565b92915050565b6000806000806080858703121561131857600080fd5b600085013567ffffffffffffffff81111561133257600080fd5b61133e87828801611299565b945050602085013567ffffffffffffffff81111561135b57600080fd5b61136787828801611299565b935050604085013567ffffffffffffffff81111561138457600080fd5b61139087828801611299565b925050606085013567ffffffffffffffff8111156113ad57600080fd5b6113b987828801611299565b91505092959194509250565b6000602082840312156113d757600080fd5b60006113e5848285016112ed565b91505092915050565b6113f781611922565b82525050565b611406816118e6565b82525050565b611415816118e6565b82525050565b61142481611934565b82525050565b6000611435826118b9565b61143f81856118c4565b935061144f81856020860161198b565b611458816119be565b840191505092915050565b600061146e826118b9565b61147881856118d5565b935061148881856020860161198b565b611491816119be565b840191505092915050565b60006114a96011836118d5565b91507f696c6c6567616c206f7065726174696f6e0000000000000000000000000000006000830152602082019050919050565b60006114e9600a836118d5565b91507f6e6f74207065726d6974000000000000000000000000000000000000000000006000830152602082019050919050565b60006101a083016000830151611535600086018261166d565b50602083015161154860208601826113fd565b50604083015161155b60408601826113fd565b5060608301518482036060860152611573828261142a565b9150506080830151848203608086015261158d828261142a565b91505060a083015184820360a08601526115a7828261142a565b91505060c083015184820360c08601526115c1828261142a565b91505060e083015184820360e08601526115db828261142a565b9150506101008301518482036101008601526115f7828261142a565b915050610120830151848203610120860152611613828261142a565b91505061014083015184820361014086015261162f828261142a565b91505061016083015184820361016086015261164b828261142a565b91505061018083015161166261018086018261166d565b508091505092915050565b61167681611918565b82525050565b61168581611918565b82525050565b60006020820190506116a0600083018461140c565b92915050565b60006020820190506116bb60008301846113ee565b92915050565b60006080820190506116d6600083018761140c565b81810360208301526116e88186611463565b905081810360408301526116fc8185611463565b905081810360608301526117108184611463565b905095945050505050565b600060c082019050611730600083018961140c565b81810360208301526117428188611463565b905081810360408301526117568187611463565b9050818103606083015261176a8186611463565b9050818103608083015261177e8185611463565b905081810360a08301526117928184611463565b9050979650505050505050565b60006020820190506117b4600083018461141b565b92915050565b600060208201905081810360008301526117d38161149c565b9050919050565b600060208201905081810360008301526117f3816114dc565b9050919050565b60006020820190508181036000830152611814818461151c565b905092915050565b6000602082019050611831600083018461167c565b92915050565b600060408201905061184c600083018561167c565b611859602083018461167c565b9392505050565b6000604051905081810181811067ffffffffffffffff8211171561188357600080fd5b8060405250919050565b600067ffffffffffffffff8211156118a457600080fd5b601f19601f8301169050602081019050919050565b600081519050919050565b600082825260208201905092915050565b600082825260208201905092915050565b60006118f1826118f8565b9050919050565b600073ffffffffffffffffffffffffffffffffffffffff82169050919050565b6000819050919050565b600061192d82611958565b9050919050565b600061193f82611946565b9050919050565b6000611951826118f8565b9050919050565b60006119638261196a565b9050919050565b6000611975826118f8565b9050919050565b82818337600083830152505050565b60005b838110156119a957808201518184015260208101905061198e565b838111156119b8576000848401525b50505050565b6000601f19601f8301169050919050565b6119d881611918565b81146119e357600080fd5b5056fea2646970667358221220e08fa23605255d66bf04953867e2b91a57b0692c0d70900f5757c3896f927ccc64736f6c634300060c0033",
  "immutableReferences": {},
  "source": "pragma solidity >=0.5.0 <0.7.0;\r\npragma experimental ABIEncoderV2;\r\n\r\nimport \"../library/CharityLib.sol\";\r\nimport \"../library/SponsorWhitelistControl.sol\";\r\n\r\ninterface CharityMedal {\r\n   function awardItem(address player) external returns (uint256);\r\n}\r\n\r\ncontract Charity {\r\n    SponsorWhitelistControl constant public SPONSOR = SponsorWhitelistControl(0x0888000000000000000000000000000000000001);\r\n    CharityMedal cm = CharityMedal(0x8529E362A6ECf262a981922dDb17FB5F814fEC34);\r\n    address public admin;\r\n\r\n    uint public id;  //\r\n\r\n    address sponsor;  //address\r\n    address helper;    //address\r\n\r\n    string sponsorName;  // or  \r\n    string helperName;\r\n\r\n    string demands;   //\r\n    string contact;   //\r\n\r\n    string img0;     // \r\n    string img1;\r\n    string location0;  // \r\n    string location1;  // \r\n    string express;    //\r\n\r\n    uint status;      // 0: 1 2 3 -1\r\n\r\n    event Update(uint id, uint status);\r\n\r\n    constructor(\r\n        address _admin,\r\n        uint _id, \r\n        address _sponsor,\r\n        string memory _sponsorName, \r\n        string memory _demands, \r\n        string memory _contact, \r\n        string memory _location0, \r\n        string memory _img0\r\n    ) public { \r\n        admin = _admin;\r\n        id = _id;\r\n        sponsor = _sponsor;\r\n        sponsorName = _sponsorName;\r\n        demands = _demands;\r\n        contact = _contact;\r\n        location0 = _location0;\r\n        img0 = _img0;\r\n        address[] memory users = new address[](1);\r\n        users[0] = address(0);\r\n        SPONSOR.addPrivilege(users);\r\n    }\r\n\r\n    function sponsorInfo() public view returns(\r\n        address, string memory, string memory, string memory, string memory, string memory\r\n    ) {\r\n        return (sponsor, sponsorName, demands, contact, img0, location0);\r\n    }\r\n\r\n    function helperInfo() public view returns(\r\n        address, string memory, string memory, string memory\r\n    ) {\r\n        return (helper, helperName, img1, location1);\r\n    }\r\n\r\n    function Info() public view returns (\r\n        CharityLib.info memory\r\n    ) {\r\n        return CharityLib.info(id, sponsor, helper, sponsorName, helperName, demands, contact, img0, img1, location0, location1, express, status);\r\n    } \r\n\r\n    function Donate(\r\n        string memory _helperName, \r\n        string memory _img1, \r\n        string memory _location1, \r\n        string memory _express\r\n    ) public {\r\n        helperName = _helperName;\r\n        img1 = _img1;\r\n        location1 = _location1;\r\n        express = _express;\r\n        update();\r\n        emit Update(id, status);\r\n    }\r\n\r\n    function getStatus() public view returns(uint) {\r\n        return status;\r\n    }\r\n\r\n    function update() public { // 0: 1 2 3 -1\r\n        status ++;\r\n        emit Update(id, status);\r\n    }\r\n\r\n    function rollback() public {  // \r\n        status --;\r\n        emit Update(id, status);\r\n    }\r\n\r\n    function complete() public {\r\n        require(status == 2, \"illegal operation\");\r\n        update();\r\n        Update(id, status);\r\n        cm.awardItem(msg.sender);\r\n    }\r\n\r\n\r\n    function failed() public {    //\r\n        status = 9;\r\n        emit Update(id, status);\r\n    } \r\n\r\n    function destroy() public{      //\r\n        require(admin == msg.sender,\"not permit\");\r\n        selfdestruct(msg.sender);\r\n    }\r\n\r\n}\r\n\r\ncontract CharityFactory {\r\n    SponsorWhitelistControl constant public SPONSOR = SponsorWhitelistControl(0x0888000000000000000000000000000000000001);\r\n    bytes contractBytecode = type(Charity).creationCode;\r\n    address[] public charities;\r\n    uint public index = 0;\r\n    address admin;\r\n\r\n    mapping(address => address[]) public myDemands;\r\n    mapping(address => address[]) public myDonates;\r\n\r\n    constructor() public {\r\n        admin = msg.sender;\r\n        address[] memory users = new address[](1);\r\n        users[0] = address(0);\r\n        SPONSOR.addPrivilege(users);\r\n    }\r\n\r\n    function deployer(        \r\n        string memory _sponsorName, \r\n        string memory _demands, \r\n        string memory _contact, \r\n        string memory _location0, \r\n        string memory _img0\r\n    ) public {\r\n        address addr;\r\n        bytes memory bytecode = abi.encodePacked(\r\n            contractBytecode, \r\n            abi.encode(\r\n                admin,\r\n                index, \r\n                msg.sender,\r\n                _sponsorName, \r\n                _demands, \r\n                _contact, \r\n                _location0, \r\n                _img0\r\n            )\r\n        );\r\n        assembly {\r\n          addr := create2(0, add(bytecode, 0x20), mload(bytecode), 0)\r\n          if iszero(extcodesize(addr)) {\r\n              revert(0, 0)\r\n          }\r\n        }\r\n\r\n        charities.push(addr);\r\n        myDemands[msg.sender].push(addr);\r\n        index ++;\r\n    }\r\n\r\n    function getMyDemands(address user) public view returns (address[] memory){\r\n        return myDemands[user];\r\n    }\r\n   \r\n    function destroy() public{      //\r\n        require(admin == msg.sender,\"not permit\");\r\n        selfdestruct(msg.sender);\r\n    }\r\n}",
  "sourcePath": "/d/Code/Conflux/JustDonate/CharityFactory/contracts/CharityFactory.sol",
  "compiler": {
    "name": "solc",
    "version": "0.6.12+commit.27d51765.Linux.g++"
  },
  "schemaVersion": "3.2.0",
  "updatedAt": "2021-05-22T06:16:11.234Z",
  "devdoc": {
    "kind": "dev",
    "methods": {},
    "version": 1
  },
  "userdoc": {
    "kind": "user",
    "methods": {},
    "version": 1
  }
}